{
  "contractName": "DistributorRole",
  "abi": [
    {
      "inputs": [
        {
          "name": "name",
          "type": "string"
        }
      ],
      "payable": false,
      "stateMutability": "nonpayable",
      "type": "constructor"
    },
    {
      "anonymous": false,
      "inputs": [
        {
          "indexed": true,
          "name": "account",
          "type": "address"
        },
        {
          "indexed": false,
          "name": "name",
          "type": "string"
        }
      ],
      "name": "DistributorAdded",
      "type": "event"
    },
    {
      "anonymous": false,
      "inputs": [
        {
          "indexed": true,
          "name": "account",
          "type": "address"
        },
        {
          "indexed": false,
          "name": "name",
          "type": "string"
        }
      ],
      "name": "DistributorRemoved",
      "type": "event"
    },
    {
      "constant": true,
      "inputs": [
        {
          "name": "account",
          "type": "address"
        }
      ],
      "name": "getNameDistributor",
      "outputs": [
        {
          "name": "",
          "type": "string"
        }
      ],
      "payable": false,
      "stateMutability": "view",
      "type": "function"
    },
    {
      "constant": true,
      "inputs": [],
      "name": "amIDistributor",
      "outputs": [
        {
          "name": "",
          "type": "bool"
        }
      ],
      "payable": false,
      "stateMutability": "view",
      "type": "function"
    },
    {
      "constant": true,
      "inputs": [
        {
          "name": "account",
          "type": "address"
        }
      ],
      "name": "isDistributor",
      "outputs": [
        {
          "name": "",
          "type": "bool"
        }
      ],
      "payable": false,
      "stateMutability": "view",
      "type": "function"
    },
    {
      "constant": false,
      "inputs": [
        {
          "name": "account",
          "type": "address"
        },
        {
          "name": "name",
          "type": "string"
        }
      ],
      "name": "addDistributor",
      "outputs": [],
      "payable": false,
      "stateMutability": "nonpayable",
      "type": "function"
    },
    {
      "constant": false,
      "inputs": [],
      "name": "renounceDistributor",
      "outputs": [],
      "payable": false,
      "stateMutability": "nonpayable",
      "type": "function"
    }
  ],
  "bytecode": "0x60806040523480156200001157600080fd5b5060405162000dd738038062000dd7833981018060405260208110156200003757600080fd5b8101908080516401000000008111156200005057600080fd5b828101905060208101848111156200006757600080fd5b81518560018202830111640100000000821117156200008557600080fd5b5050929190505050620000a83382620000af640100000000026401000000009004565b50620003ef565b620000d5828260006200018f640100000000026200075117909291906401000000009004565b8173ffffffffffffffffffffffffffffffffffffffff167fd5f2429a2bf80f34a91686b8f8d62bb9eae8dc57860a6d9897513d36c9696beb826040518080602001828103825283818151815260200191508051906020019080838360005b838110156200015057808201518184015260208101905062000133565b50505050905090810190601f1680156200017e5780820380516001836020036101000a031916815260200191505b509250505060405180910390a25050565b600073ffffffffffffffffffffffffffffffffffffffff168273ffffffffffffffffffffffffffffffffffffffff1614151515620001cc57600080fd5b620001e78383620002ab640100000000026401000000009004565b151515620001f457600080fd5b60018360000160008473ffffffffffffffffffffffffffffffffffffffff1673ffffffffffffffffffffffffffffffffffffffff16815260200190815260200160002060006101000a81548160ff021916908315150217905550808360010160008473ffffffffffffffffffffffffffffffffffffffff1673ffffffffffffffffffffffffffffffffffffffff1681526020019081526020016000209080519060200190620002a592919062000340565b50505050565b60008073ffffffffffffffffffffffffffffffffffffffff168273ffffffffffffffffffffffffffffffffffffffff1614151515620002e957600080fd5b8260000160008373ffffffffffffffffffffffffffffffffffffffff1673ffffffffffffffffffffffffffffffffffffffff16815260200190815260200160002060009054906101000a900460ff16905092915050565b828054600181600116156101000203166002900490600052602060002090601f016020900481019282601f106200038357805160ff1916838001178555620003b4565b82800160010185558215620003b4579182015b82811115620003b357825182559160200191906001019062000396565b5b509050620003c39190620003c7565b5090565b620003ec91905b80821115620003e8576000816000905550600101620003ce565b5090565b90565b6109d880620003ff6000396000f3fe60806040526004361061006d576000357c0100000000000000000000000000000000000000000000000000000000900463ffffffff1680631214d2fd1461007257806337d76c1b1461015a578063644241db146102245780638f0c86fa1461023b578063cf196671146102a4575b600080fd5b34801561007e57600080fd5b506101586004803603604081101561009557600080fd5b81019080803573ffffffffffffffffffffffffffffffffffffffff169060200190929190803590602001906401000000008111156100d257600080fd5b8201836020820111156100e457600080fd5b8035906020019184600183028401116401000000008311171561010657600080fd5b91908080601f016020809104026020016040519081016040528093929190818152602001838380828437600081840152601f19601f8201169050808301925050505050505091929192905050506102d3565b005b34801561016657600080fd5b506101a96004803603602081101561017d57600080fd5b81019080803573ffffffffffffffffffffffffffffffffffffffff169060200190929190505050610384565b6040518080602001828103825283818151815260200191508051906020019080838360005b838110156101e95780820151818401526020810190506101ce565b50505050905090810190601f1680156102165780820380516001836020036101000a031916815260200191505b509250505060405180910390f35b34801561023057600080fd5b506102396103a1565b005b34801561024757600080fd5b5061028a6004803603602081101561025e57600080fd5b81019080803573ffffffffffffffffffffffffffffffffffffffff1690602001909291905050506103ac565b604051808215151515815260200191505060405180910390f35b3480156102b057600080fd5b506102b96103c9565b604051808215151515815260200191505060405180910390f35b6102dc336103ac565b1515610376576040517f08c379a000000000000000000000000000000000000000000000000000000000815260040180806020018281038252602b8152602001807f41636369c3b36e20736f6c6f207065726d6974696461207061726120656c204481526020017f6973747269627569646f7200000000000000000000000000000000000000000081525060400191505060405180910390fd5b61038082826103e4565b5050565b606061039a8260006104b190919063ffffffff16565b9050919050565b6103aa33610595565b565b60006103c28260006106bd90919063ffffffff16565b9050919050565b60006103df3360006106bd90919063ffffffff16565b905090565b6103fa828260006107519092919063ffffffff16565b8173ffffffffffffffffffffffffffffffffffffffff167fd5f2429a2bf80f34a91686b8f8d62bb9eae8dc57860a6d9897513d36c9696beb826040518080602001828103825283818151815260200191508051906020019080838360005b83811015610473578082015181840152602081019050610458565b50505050905090810190601f1680156104a05780820380516001836020036101000a031916815260200191505b509250505060405180910390a25050565b60608260010160008373ffffffffffffffffffffffffffffffffffffffff1673ffffffffffffffffffffffffffffffffffffffff1681526020019081526020016000208054600181600116156101000203166002900480601f0160208091040260200160405190810160405280929190818152602001828054600181600116156101000203166002900480156105885780601f1061055d57610100808354040283529160200191610588565b820191906000526020600020905b81548152906001019060200180831161056b57829003601f168201915b5050505050905092915050565b6105a981600061085890919063ffffffff16565b8073ffffffffffffffffffffffffffffffffffffffff167fe1f0f63bd16b1fe6d239f7979ac1ddd832b06aaf47a1bdebceacba9b6acfca87600060010160008473ffffffffffffffffffffffffffffffffffffffff1673ffffffffffffffffffffffffffffffffffffffff16815260200190815260200160002060405180806020018281038252838181546001816001161561010002031660029004815260200191508054600181600116156101000203166002900480156106ac5780601f10610681576101008083540402835291602001916106ac565b820191906000526020600020905b81548152906001019060200180831161068f57829003601f168201915b50509250505060405180910390a250565b60008073ffffffffffffffffffffffffffffffffffffffff168273ffffffffffffffffffffffffffffffffffffffff16141515156106fa57600080fd5b8260000160008373ffffffffffffffffffffffffffffffffffffffff1673ffffffffffffffffffffffffffffffffffffffff16815260200190815260200160002060009054906101000a900460ff16905092915050565b600073ffffffffffffffffffffffffffffffffffffffff168273ffffffffffffffffffffffffffffffffffffffff161415151561078d57600080fd5b61079783836106bd565b1515156107a357600080fd5b60018360000160008473ffffffffffffffffffffffffffffffffffffffff1673ffffffffffffffffffffffffffffffffffffffff16815260200190815260200160002060006101000a81548160ff021916908315150217905550808360010160008473ffffffffffffffffffffffffffffffffffffffff1673ffffffffffffffffffffffffffffffffffffffff1681526020019081526020016000209080519060200190610852929190610907565b50505050565b600073ffffffffffffffffffffffffffffffffffffffff168173ffffffffffffffffffffffffffffffffffffffff161415151561089457600080fd5b61089e82826106bd565b15156108a957600080fd5b60008260000160008373ffffffffffffffffffffffffffffffffffffffff1673ffffffffffffffffffffffffffffffffffffffff16815260200190815260200160002060006101000a81548160ff0219169083151502179055505050565b828054600181600116156101000203166002900490600052602060002090601f016020900481019282601f1061094857805160ff1916838001178555610976565b82800160010185558215610976579182015b8281111561097557825182559160200191906001019061095a565b5b5090506109839190610987565b5090565b6109a991905b808211156109a557600081600090555060010161098d565b5090565b9056fea165627a7a723058203b785ebe195b9b92e7126f97928335ffdc1d497abaf82e32f3fd8f71f1b08cde0029",
  "source": "pragma solidity >=0.4.24 < 0.6.4;\r\n\r\n// Import the library 'Roles'\r\nimport \"./Roles.sol\";\r\n\r\n// Define a contract 'DistributorRole' to manage this role - add, remove, check\r\ncontract DistributorRole {\r\n  using Roles for Roles.Role;\r\n  // Define 2 events, one for Adding, and other for Removing\r\n  event DistributorAdded(address indexed account, string name);\r\n  event DistributorRemoved(address indexed account , string name);\r\n  // Define a struct 'Distributors' by inheriting from 'Roles' library, struct Role\r\n  Roles.Role private Distributors;\r\n  // In the constructor make the address that deploys this contract the 1st Distributor\r\n  constructor(string memory name) public {\r\n    _addDistributor(msg.sender, name);\r\n  }\r\n\r\n  // Define a modifier that checks to see if msg.sender has the appropriate role\r\n  modifier onlyDistributor() {\r\n    require(isDistributor(msg.sender), \"Acci贸n solo permitida para el Distribuidor\");\r\n    _;\r\n  }\r\n      function getNameDistributor(address account) public view returns (string memory) {\r\n        return Distributors.getName(account);\r\n    }\r\n     /// Function to check caller `msg.sender` if he has Distributor role\r\n    /// @return boolean for caller address state in `_Distributors` Role\r\n    function amIDistributor() public view returns (bool) {\r\n        return Distributors.has(msg.sender);\r\n    }\r\n\r\n  // Define a function 'isDistributor' to check this role\r\n  function isDistributor(address account) public view returns (bool) {\r\n     return Distributors.has(account);\r\n  }\r\n\r\n  // Define a function 'addDistributor' that adds this role\r\n  function addDistributor(address account, string memory name) public onlyDistributor {\r\n    _addDistributor(account, name);\r\n  }\r\n\r\n  // Define a function 'renounceDistributor' to renounce this role\r\n  function renounceDistributor() public {\r\n    _removeDistributor(msg.sender);\r\n  }\r\n\r\n  // Define an internal function '_addDistributor' to add this role, called by 'addDistributor'\r\n  function _addDistributor(address account, string memory name) internal {\r\n    Distributors.add(account,name);\r\n    emit DistributorAdded(account, name);\r\n  }\r\n\r\n  // Define an internal function '_removeDistributor' to remove this role, called by 'removeDistributor'\r\n  function _removeDistributor(address account) internal {\r\n    Distributors.remove(account);\r\n    emit DistributorRemoved(account, Distributors.name[account]);\r\n  }\r\n}",
  "sourcePath": "C:\\Users\\Usuario\\Desktop\\Ethereum-Drug-Supplychain-master\\contracts\\roles\\DistributorRole.sol",
  "compiler": {
    "name": "solc",
    "version": "0.5.0+commit.1d4f565a.Emscripten.clang"
  },
  "schemaVersion": "3.0.23",
  "updatedAt": "2020-07-31T15:16:04.489Z",
  "devdoc": {
    "methods": {
      "amIDistributor()": {
        "return": "boolean for caller address state in `_Distributors` Role"
      }
    }
  },
  "userdoc": {
    "methods": {}
  }
}