{
  "contractName": "FarmerRole",
  "abi": [
    {
      "inputs": [
        {
          "name": "name",
          "type": "string"
        }
      ],
      "payable": false,
      "stateMutability": "nonpayable",
      "type": "constructor"
    },
    {
      "anonymous": false,
      "inputs": [
        {
          "indexed": true,
          "name": "account",
          "type": "address"
        },
        {
          "indexed": false,
          "name": "name",
          "type": "string"
        }
      ],
      "name": "FarmerAdded",
      "type": "event"
    },
    {
      "anonymous": false,
      "inputs": [
        {
          "indexed": true,
          "name": "account",
          "type": "address"
        },
        {
          "indexed": false,
          "name": "name",
          "type": "string"
        }
      ],
      "name": "FarmerRemoved",
      "type": "event"
    },
    {
      "constant": true,
      "inputs": [
        {
          "name": "account",
          "type": "address"
        }
      ],
      "name": "getNameFarmer",
      "outputs": [
        {
          "name": "",
          "type": "string"
        }
      ],
      "payable": false,
      "stateMutability": "view",
      "type": "function"
    },
    {
      "constant": true,
      "inputs": [],
      "name": "amIFarmer",
      "outputs": [
        {
          "name": "",
          "type": "bool"
        }
      ],
      "payable": false,
      "stateMutability": "view",
      "type": "function"
    },
    {
      "constant": true,
      "inputs": [
        {
          "name": "account",
          "type": "address"
        }
      ],
      "name": "isFarmer",
      "outputs": [
        {
          "name": "",
          "type": "bool"
        }
      ],
      "payable": false,
      "stateMutability": "view",
      "type": "function"
    },
    {
      "constant": false,
      "inputs": [
        {
          "name": "account",
          "type": "address"
        },
        {
          "name": "name",
          "type": "string"
        }
      ],
      "name": "addFarmer",
      "outputs": [],
      "payable": false,
      "stateMutability": "nonpayable",
      "type": "function"
    },
    {
      "constant": false,
      "inputs": [],
      "name": "renounceFarmer",
      "outputs": [],
      "payable": false,
      "stateMutability": "nonpayable",
      "type": "function"
    }
  ],
  "bytecode": "0x60806040523480156200001157600080fd5b5060405162000dd738038062000dd7833981018060405260208110156200003757600080fd5b8101908080516401000000008111156200005057600080fd5b828101905060208101848111156200006757600080fd5b81518560018202830111640100000000821117156200008557600080fd5b5050929190505050620000a83382620000af640100000000026401000000009004565b50620003ef565b620000d5828260006200018f640100000000026200080017909291906401000000009004565b8173ffffffffffffffffffffffffffffffffffffffff167f2d3331c2b3444f4cc5283c8d148c8508e8ac7ce8ecf49d2896a17fd0a4e29d5b826040518080602001828103825283818151815260200191508051906020019080838360005b838110156200015057808201518184015260208101905062000133565b50505050905090810190601f1680156200017e5780820380516001836020036101000a031916815260200191505b509250505060405180910390a25050565b600073ffffffffffffffffffffffffffffffffffffffff168273ffffffffffffffffffffffffffffffffffffffff1614151515620001cc57600080fd5b620001e78383620002ab640100000000026401000000009004565b151515620001f457600080fd5b60018360000160008473ffffffffffffffffffffffffffffffffffffffff1673ffffffffffffffffffffffffffffffffffffffff16815260200190815260200160002060006101000a81548160ff021916908315150217905550808360010160008473ffffffffffffffffffffffffffffffffffffffff1673ffffffffffffffffffffffffffffffffffffffff1681526020019081526020016000209080519060200190620002a592919062000340565b50505050565b60008073ffffffffffffffffffffffffffffffffffffffff168273ffffffffffffffffffffffffffffffffffffffff1614151515620002e957600080fd5b8260000160008373ffffffffffffffffffffffffffffffffffffffff1673ffffffffffffffffffffffffffffffffffffffff16815260200190815260200160002060009054906101000a900460ff16905092915050565b828054600181600116156101000203166002900490600052602060002090601f016020900481019282601f106200038357805160ff1916838001178555620003b4565b82800160010185558215620003b4579182015b82811115620003b357825182559160200191906001019062000396565b5b509050620003c39190620003c7565b5090565b620003ec91905b80821115620003e8576000816000905550600101620003ce565b5090565b90565b6109d880620003ff6000396000f3fe60806040526004361061006d576000357c0100000000000000000000000000000000000000000000000000000000900463ffffffff16806380fc0ce41461007257806389671bf014610089578063a35628c614610171578063b9429069146101a0578063f7b5e0d214610209575b600080fd5b34801561007e57600080fd5b506100876102d3565b005b34801561009557600080fd5b5061016f600480360360408110156100ac57600080fd5b81019080803573ffffffffffffffffffffffffffffffffffffffff169060200190929190803590602001906401000000008111156100e957600080fd5b8201836020820111156100fb57600080fd5b8035906020019184600183028401116401000000008311171561011d57600080fd5b91908080601f016020809104026020016040519081016040528093929190818152602001838380828437600081840152601f19601f8201169050808301925050505050505091929192905050506102de565b005b34801561017d57600080fd5b5061018661038f565b604051808215151515815260200191505060405180910390f35b3480156101ac57600080fd5b506101ef600480360360208110156101c357600080fd5b81019080803573ffffffffffffffffffffffffffffffffffffffff1690602001909291905050506103aa565b604051808215151515815260200191505060405180910390f35b34801561021557600080fd5b506102586004803603602081101561022c57600080fd5b81019080803573ffffffffffffffffffffffffffffffffffffffff1690602001909291905050506103c7565b6040518080602001828103825283818151815260200191508051906020019080838360005b8381101561029857808201518184015260208101905061027d565b50505050905090810190601f1680156102c55780820380516001836020036101000a031916815260200191505b509250505060405180910390f35b6102dc336103e4565b565b6102e7336103aa565b1515610381576040517f08c379a00000000000000000000000000000000000000000000000000000000081526004018080602001828103825260298152602001807f41636369c3b36e20736f6c6f207065726d6974696461207061726120656c204181526020017f67726963756c746f72000000000000000000000000000000000000000000000081525060400191505060405180910390fd5b61038b828261050c565b5050565b60006103a53360006105d990919063ffffffff16565b905090565b60006103c08260006105d990919063ffffffff16565b9050919050565b60606103dd82600061066d90919063ffffffff16565b9050919050565b6103f881600061075190919063ffffffff16565b8073ffffffffffffffffffffffffffffffffffffffff167fb4837998ffdbd9d44a8b242cbd8fa6dce691a73411ecf4a2f9afca2b88417fde600060010160008473ffffffffffffffffffffffffffffffffffffffff1673ffffffffffffffffffffffffffffffffffffffff16815260200190815260200160002060405180806020018281038252838181546001816001161561010002031660029004815260200191508054600181600116156101000203166002900480156104fb5780601f106104d0576101008083540402835291602001916104fb565b820191906000526020600020905b8154815290600101906020018083116104de57829003601f168201915b50509250505060405180910390a250565b610522828260006108009092919063ffffffff16565b8173ffffffffffffffffffffffffffffffffffffffff167f2d3331c2b3444f4cc5283c8d148c8508e8ac7ce8ecf49d2896a17fd0a4e29d5b826040518080602001828103825283818151815260200191508051906020019080838360005b8381101561059b578082015181840152602081019050610580565b50505050905090810190601f1680156105c85780820380516001836020036101000a031916815260200191505b509250505060405180910390a25050565b60008073ffffffffffffffffffffffffffffffffffffffff168273ffffffffffffffffffffffffffffffffffffffff161415151561061657600080fd5b8260000160008373ffffffffffffffffffffffffffffffffffffffff1673ffffffffffffffffffffffffffffffffffffffff16815260200190815260200160002060009054906101000a900460ff16905092915050565b60608260010160008373ffffffffffffffffffffffffffffffffffffffff1673ffffffffffffffffffffffffffffffffffffffff1681526020019081526020016000208054600181600116156101000203166002900480601f0160208091040260200160405190810160405280929190818152602001828054600181600116156101000203166002900480156107445780601f1061071957610100808354040283529160200191610744565b820191906000526020600020905b81548152906001019060200180831161072757829003601f168201915b5050505050905092915050565b600073ffffffffffffffffffffffffffffffffffffffff168173ffffffffffffffffffffffffffffffffffffffff161415151561078d57600080fd5b61079782826105d9565b15156107a257600080fd5b60008260000160008373ffffffffffffffffffffffffffffffffffffffff1673ffffffffffffffffffffffffffffffffffffffff16815260200190815260200160002060006101000a81548160ff0219169083151502179055505050565b600073ffffffffffffffffffffffffffffffffffffffff168273ffffffffffffffffffffffffffffffffffffffff161415151561083c57600080fd5b61084683836105d9565b15151561085257600080fd5b60018360000160008473ffffffffffffffffffffffffffffffffffffffff1673ffffffffffffffffffffffffffffffffffffffff16815260200190815260200160002060006101000a81548160ff021916908315150217905550808360010160008473ffffffffffffffffffffffffffffffffffffffff1673ffffffffffffffffffffffffffffffffffffffff1681526020019081526020016000209080519060200190610901929190610907565b50505050565b828054600181600116156101000203166002900490600052602060002090601f016020900481019282601f1061094857805160ff1916838001178555610976565b82800160010185558215610976579182015b8281111561097557825182559160200191906001019061095a565b5b5090506109839190610987565b5090565b6109a991905b808211156109a557600081600090555060010161098d565b5090565b9056fea165627a7a723058203c074a372f125d39077219bd9df7a6071ba598c8138123b262810e8eb79fc29d0029",
  "source": "pragma solidity >=0.4.24 < 0.6.4;\r\n\r\n// Import the library 'Roles'\r\nimport \"./Roles.sol\";\r\n\r\n// Define a contract 'FarmerRole' to manage this role - add, remove, check\r\ncontract FarmerRole {\r\n  using Roles for Roles.Role;\r\n  // Define 2 events, one for Adding, and other for Removing\r\n  event FarmerAdded(address indexed account, string name);\r\n  event FarmerRemoved(address indexed account , string name);\r\n  // Define a struct 'Farmers' by inheriting from 'Roles' library, struct Role\r\n  Roles.Role private Farmers;\r\n  // In the constructor make the address that deploys this contract the 1st Farmer\r\n  constructor(string memory name) public {\r\n    _addFarmer(msg.sender, name);\r\n  }\r\n\r\n  // Define a modifier that checks to see if msg.sender has the appropriate role\r\n  modifier onlyFarmer() {\r\n    require(isFarmer(msg.sender), \"Acci贸n solo permitida para el Agricultor\");\r\n    _;\r\n  }\r\n      function getNameFarmer(address account) public view returns (string memory) {\r\n        return Farmers.getName(account);\r\n    }\r\n     /// Function to check caller `msg.sender` if he has Farmer role\r\n    /// @return boolean for caller address state in `_Farmers` Role\r\n    function amIFarmer() public view returns (bool) {\r\n        return Farmers.has(msg.sender);\r\n    }\r\n\r\n  // Define a function 'isFarmer' to check this role\r\n  function isFarmer(address account) public view returns (bool) {\r\n     return Farmers.has(account);\r\n  }\r\n\r\n  // Define a function 'addFarmer' that adds this role\r\n  function addFarmer(address account, string memory name) public onlyFarmer {\r\n    _addFarmer(account, name);\r\n  }\r\n\r\n  // Define a function 'renounceFarmer' to renounce this role\r\n  function renounceFarmer() public {\r\n    _removeFarmer(msg.sender);\r\n  }\r\n\r\n  // Define an internal function '_addFarmer' to add this role, called by 'addFarmer'\r\n  function _addFarmer(address account, string memory name) internal {\r\n    Farmers.add(account,name);\r\n    emit FarmerAdded(account, name);\r\n  }\r\n\r\n  // Define an internal function '_removeFarmer' to remove this role, called by 'removeFarmer'\r\n  function _removeFarmer(address account) internal {\r\n    Farmers.remove(account);\r\n    emit FarmerRemoved(account,Farmers.name[account]);\r\n  }\r\n}",
  "sourcePath": "C:\\Users\\Usuario\\Desktop\\Ethereum-Drug-Supplychain-master\\contracts\\roles\\FarmerRole.sol",
  "compiler": {
    "name": "solc",
    "version": "0.5.0+commit.1d4f565a.Emscripten.clang"
  },
  "schemaVersion": "3.0.23",
  "updatedAt": "2020-07-31T15:16:04.508Z",
  "devdoc": {
    "methods": {
      "amIFarmer()": {
        "return": "boolean for caller address state in `_Farmers` Role"
      }
    }
  },
  "userdoc": {
    "methods": {}
  }
}