{
  "contractName": "ManufacturerRole",
  "abi": [
    {
      "inputs": [],
      "payable": false,
      "stateMutability": "nonpayable",
      "type": "constructor"
    },
    {
      "anonymous": false,
      "inputs": [
        {
          "indexed": true,
          "internalType": "address",
          "name": "account",
          "type": "address"
        }
      ],
      "name": "ManufacturerAdded",
      "type": "event"
    },
    {
      "anonymous": false,
      "inputs": [
        {
          "indexed": true,
          "internalType": "address",
          "name": "account",
          "type": "address"
        }
      ],
      "name": "ManufacturerRemoved",
      "type": "event"
    },
    {
      "constant": true,
      "inputs": [
        {
          "internalType": "address",
          "name": "account",
          "type": "address"
        }
      ],
      "name": "isManufacturer",
      "outputs": [
        {
          "internalType": "bool",
          "name": "",
          "type": "bool"
        }
      ],
      "payable": false,
      "stateMutability": "view",
      "type": "function"
    },
    {
      "constant": false,
      "inputs": [
        {
          "internalType": "address",
          "name": "account",
          "type": "address"
        }
      ],
      "name": "addManufacturer",
      "outputs": [],
      "payable": false,
      "stateMutability": "nonpayable",
      "type": "function"
    },
    {
      "constant": false,
      "inputs": [],
      "name": "renounceManufacturer",
      "outputs": [],
      "payable": false,
      "stateMutability": "nonpayable",
      "type": "function"
    }
  ],
  "bytecode": "0x608060405234801561001057600080fd5b506100203361002560201b60201c565b6101c7565b61003d81600061008360201b61027c1790919060201c565b8073ffffffffffffffffffffffffffffffffffffffff167f561138658ca49a8540dc70dcfe64c9026c1c5b9344642242dd6562970f9c127860405160405180910390a250565b600073ffffffffffffffffffffffffffffffffffffffff168173ffffffffffffffffffffffffffffffffffffffff1614156100bd57600080fd5b6100cd828261013560201b60201c565b156100d757600080fd5b60018260000160008373ffffffffffffffffffffffffffffffffffffffff1673ffffffffffffffffffffffffffffffffffffffff16815260200190815260200160002060006101000a81548160ff0219169083151502179055505050565b60008073ffffffffffffffffffffffffffffffffffffffff168273ffffffffffffffffffffffffffffffffffffffff16141561017057600080fd5b8260000160008373ffffffffffffffffffffffffffffffffffffffff1673ffffffffffffffffffffffffffffffffffffffff16815260200190815260200160002060009054906101000a900460ff16905092915050565b610408806101d66000396000f3fe608060405234801561001057600080fd5b50600436106100415760003560e01c806317d4a491146100465780635f8a5afa146100a2578063de07f34e146100e6575b600080fd5b6100886004803603602081101561005c57600080fd5b81019080803573ffffffffffffffffffffffffffffffffffffffff1690602001909291905050506100f0565b604051808215151515815260200191505060405180910390f35b6100e4600480360360208110156100b857600080fd5b81019080803573ffffffffffffffffffffffffffffffffffffffff16906020019092919050505061010d565b005b6100ee61012b565b005b600061010682600061013690919063ffffffff16565b9050919050565b610116336100f0565b61011f57600080fd5b610128816101c8565b50565b61013433610222565b565b60008073ffffffffffffffffffffffffffffffffffffffff168273ffffffffffffffffffffffffffffffffffffffff16141561017157600080fd5b8260000160008373ffffffffffffffffffffffffffffffffffffffff1673ffffffffffffffffffffffffffffffffffffffff16815260200190815260200160002060009054906101000a900460ff16905092915050565b6101dc81600061027c90919063ffffffff16565b8073ffffffffffffffffffffffffffffffffffffffff167f561138658ca49a8540dc70dcfe64c9026c1c5b9344642242dd6562970f9c127860405160405180910390a250565b61023681600061032890919063ffffffff16565b8073ffffffffffffffffffffffffffffffffffffffff167f2fed5abf6a80d6dfe30b4895481b2fc5d7dce5f8f7b931832f4a2947d5040c7f60405160405180910390a250565b600073ffffffffffffffffffffffffffffffffffffffff168173ffffffffffffffffffffffffffffffffffffffff1614156102b657600080fd5b6102c08282610136565b156102ca57600080fd5b60018260000160008373ffffffffffffffffffffffffffffffffffffffff1673ffffffffffffffffffffffffffffffffffffffff16815260200190815260200160002060006101000a81548160ff0219169083151502179055505050565b600073ffffffffffffffffffffffffffffffffffffffff168173ffffffffffffffffffffffffffffffffffffffff16141561036257600080fd5b61036c8282610136565b61037557600080fd5b60008260000160008373ffffffffffffffffffffffffffffffffffffffff1673ffffffffffffffffffffffffffffffffffffffff16815260200190815260200160002060006101000a81548160ff021916908315150217905550505056fea265627a7a723158204093e7e3f113de60d22009aafd62320d44a6256ea1dfe70fabe9cc8aa40debe564736f6c63430005100032",
  "source": "pragma solidity >=0.4.24 < 0.6.4;\r\n\r\n// Import the library 'Roles'\r\nimport \"./Roles.sol\";\r\n\r\n// Define a contract 'ManufacturerRole' to manage this role - add, remove, check\r\ncontract ManufacturerRole {\r\n  using Roles for Roles.Role;\r\n  // Define 2 events, one for Adding, and other for Removing\r\n  event ManufacturerAdded(address indexed account);\r\n  event ManufacturerRemoved(address indexed account);\r\n  // Define a struct 'Manufacturers' by inheriting from 'Roles' library, struct Role\r\n  Roles.Role private Manufacturers;\r\n  // In the constructor make the address that deploys this contract the 1st Manufacturer\r\n  constructor() public {\r\n    _addManufacturer(msg.sender);\r\n  }\r\n\r\n  // Define a modifier that checks to see if msg.sender has the appropriate role\r\n  modifier onlyManufacturer() {\r\n    require(isManufacturer(msg.sender));\r\n    _;\r\n  }\r\n\r\n  // Define a function 'isManufacturer' to check this role\r\n  function isManufacturer(address account) public view returns (bool) {\r\n    return Manufacturers.has(account);\r\n  }\r\n\r\n  // Define a function 'addManufacturer' that adds this role\r\n  function addManufacturer(address account) public onlyManufacturer {\r\n    _addManufacturer(account);\r\n  }\r\n\r\n  // Define a function 'renounceManufacturer' to renounce this role\r\n  function renounceManufacturer() public {\r\n    _removeManufacturer(msg.sender);\r\n  }\r\n\r\n  // Define an internal function '_addManufacturer' to add this role, called by 'addManufacturer'\r\n  function _addManufacturer(address account) internal {\r\n    Manufacturers.add(account);\r\n    emit ManufacturerAdded(account);\r\n  }\r\n\r\n  // Define an internal function '_removeManufacturer' to remove this role, called by 'removeManufacturer'\r\n  function _removeManufacturer(address account) internal {\r\n    Manufacturers.remove(account);\r\n    emit ManufacturerRemoved(account);\r\n  }\r\n}",
  "sourcePath": "C:\\Users\\Usuario\\Desktop\\Prototype\\CoffeeTrazability\\contracts\\roles\\ManufacturerRole.sol",
  "compiler": {
    "name": "solc",
    "version": "0.5.16+commit.9c3226ce.Emscripten.clang"
  },
  "schemaVersion": "3.0.23",
  "updatedAt": "2020-04-22T16:37:42.016Z",
  "devdoc": {
    "methods": {}
  },
  "userdoc": {
    "methods": {}
  }
}