{
  "contractName": "ProcessorRole",
  "abi": [
    {
      "inputs": [],
      "payable": false,
      "stateMutability": "nonpayable",
      "type": "constructor"
    },
    {
      "anonymous": false,
      "inputs": [
        {
          "indexed": true,
          "internalType": "address",
          "name": "account",
          "type": "address"
        }
      ],
      "name": "ProcessorAdded",
      "type": "event"
    },
    {
      "anonymous": false,
      "inputs": [
        {
          "indexed": true,
          "internalType": "address",
          "name": "account",
          "type": "address"
        }
      ],
      "name": "ProcessorRemoved",
      "type": "event"
    },
    {
      "constant": true,
      "inputs": [
        {
          "internalType": "address",
          "name": "account",
          "type": "address"
        }
      ],
      "name": "isProcessor",
      "outputs": [
        {
          "internalType": "bool",
          "name": "",
          "type": "bool"
        }
      ],
      "payable": false,
      "stateMutability": "view",
      "type": "function"
    },
    {
      "constant": false,
      "inputs": [
        {
          "internalType": "address",
          "name": "account",
          "type": "address"
        }
      ],
      "name": "addProcessor",
      "outputs": [],
      "payable": false,
      "stateMutability": "nonpayable",
      "type": "function"
    },
    {
      "constant": false,
      "inputs": [],
      "name": "renounceProcessor",
      "outputs": [],
      "payable": false,
      "stateMutability": "nonpayable",
      "type": "function"
    }
  ],
  "bytecode": "0x608060405234801561001057600080fd5b506100203361002560201b60201c565b6101c7565b61003d81600061008360201b61027b1790919060201c565b8073ffffffffffffffffffffffffffffffffffffffff167f05c1b3ccb9c2d46f702e834ef4d1089736770e1dc99594e4eed7d32156c5809960405160405180910390a250565b600073ffffffffffffffffffffffffffffffffffffffff168173ffffffffffffffffffffffffffffffffffffffff1614156100bd57600080fd5b6100cd828261013560201b60201c565b156100d757600080fd5b60018260000160008373ffffffffffffffffffffffffffffffffffffffff1673ffffffffffffffffffffffffffffffffffffffff16815260200190815260200160002060006101000a81548160ff0219169083151502179055505050565b60008073ffffffffffffffffffffffffffffffffffffffff168273ffffffffffffffffffffffffffffffffffffffff16141561017057600080fd5b8260000160008373ffffffffffffffffffffffffffffffffffffffff1673ffffffffffffffffffffffffffffffffffffffff16815260200190815260200160002060009054906101000a900460ff16905092915050565b610407806101d66000396000f3fe608060405234801561001057600080fd5b50600436106100405760003560e01c80620919881461004557806325460753146100a157806347fd0987146100e5575b600080fd5b6100876004803603602081101561005b57600080fd5b81019080803573ffffffffffffffffffffffffffffffffffffffff1690602001909291905050506100ef565b604051808215151515815260200191505060405180910390f35b6100e3600480360360208110156100b757600080fd5b81019080803573ffffffffffffffffffffffffffffffffffffffff16906020019092919050505061010c565b005b6100ed61012a565b005b600061010582600061013590919063ffffffff16565b9050919050565b610115336100ef565b61011e57600080fd5b610127816101c7565b50565b61013333610221565b565b60008073ffffffffffffffffffffffffffffffffffffffff168273ffffffffffffffffffffffffffffffffffffffff16141561017057600080fd5b8260000160008373ffffffffffffffffffffffffffffffffffffffff1673ffffffffffffffffffffffffffffffffffffffff16815260200190815260200160002060009054906101000a900460ff16905092915050565b6101db81600061027b90919063ffffffff16565b8073ffffffffffffffffffffffffffffffffffffffff167f05c1b3ccb9c2d46f702e834ef4d1089736770e1dc99594e4eed7d32156c5809960405160405180910390a250565b61023581600061032790919063ffffffff16565b8073ffffffffffffffffffffffffffffffffffffffff167fbcd349bbef1d62ad73e4f031a0ef1fa29c49ddcd0bac9f7a86bb4a425e03222260405160405180910390a250565b600073ffffffffffffffffffffffffffffffffffffffff168173ffffffffffffffffffffffffffffffffffffffff1614156102b557600080fd5b6102bf8282610135565b156102c957600080fd5b60018260000160008373ffffffffffffffffffffffffffffffffffffffff1673ffffffffffffffffffffffffffffffffffffffff16815260200190815260200160002060006101000a81548160ff0219169083151502179055505050565b600073ffffffffffffffffffffffffffffffffffffffff168173ffffffffffffffffffffffffffffffffffffffff16141561036157600080fd5b61036b8282610135565b61037457600080fd5b60008260000160008373ffffffffffffffffffffffffffffffffffffffff1673ffffffffffffffffffffffffffffffffffffffff16815260200190815260200160002060006101000a81548160ff021916908315150217905550505056fea265627a7a723158208698e16ef89c4783eca070eb4a5ceb232741349c5b128ef7f035e50873a3554964736f6c63430005100032",
  "source": "pragma solidity >=0.4.24 < 0.6.4;\r\n\r\n// Import the library 'Roles'\r\nimport \"./Roles.sol\";\r\n\r\n// Define a contract 'ProcessorRole' to manage this role - add, remove, check\r\ncontract ProcessorRole {\r\n  using Roles for Roles.Role;\r\n  // Define 2 events, one for Adding, and other for Removing\r\n  event ProcessorAdded(address indexed account);\r\n  event ProcessorRemoved(address indexed account);\r\n  // Define a struct 'Processors' by inheriting from 'Roles' library, struct Role\r\n  Roles.Role private Processors;\r\n  // In the constructor make the address that deploys this contract the 1st Processor\r\n  constructor() public {\r\n    _addProcessor(msg.sender);\r\n  }\r\n\r\n  // Define a modifier that checks to see if msg.sender has the appropriate role\r\n  modifier onlyProcessor() {\r\n    require(isProcessor(msg.sender));\r\n    _;\r\n  }\r\n\r\n  // Define a function 'isProcessor' to check this role\r\n  function isProcessor(address account) public view returns (bool) {\r\n    return Processors.has(account);\r\n  }\r\n\r\n  // Define a function 'addProcessor' that adds this role\r\n  function addProcessor(address account) public onlyProcessor {\r\n    _addProcessor(account);\r\n  }\r\n\r\n  // Define a function 'renounceProcessor' to renounce this role\r\n  function renounceProcessor() public {\r\n    _removeProcessor(msg.sender);\r\n  }\r\n\r\n  // Define an internal function '_addProcessor' to add this role, called by 'addProcessor'\r\n  function _addProcessor(address account) internal {\r\n    Processors.add(account);\r\n    emit ProcessorAdded(account);\r\n  }\r\n\r\n  // Define an internal function '_removeProcessor' to remove this role, called by 'removeProcessor'\r\n  function _removeProcessor(address account) internal {\r\n    Processors.remove(account);\r\n    emit ProcessorRemoved(account);\r\n  }\r\n}",
  "sourcePath": "C:\\Users\\Usuario\\Desktop\\Prototype\\CoffeeTrazability\\contracts\\roles\\ProcessorRole.sol",
  "compiler": {
    "name": "solc",
    "version": "0.5.16+commit.9c3226ce.Emscripten.clang"
  },
  "schemaVersion": "3.0.23",
  "updatedAt": "2020-04-22T16:37:42.072Z",
  "devdoc": {
    "methods": {}
  },
  "userdoc": {
    "methods": {}
  }
}