{
  "contractName": "ProcessorRole",
  "abi": [
    {
      "inputs": [
        {
          "name": "name",
          "type": "string"
        }
      ],
      "payable": false,
      "stateMutability": "nonpayable",
      "type": "constructor"
    },
    {
      "anonymous": false,
      "inputs": [
        {
          "indexed": true,
          "name": "account",
          "type": "address"
        },
        {
          "indexed": false,
          "name": "name",
          "type": "string"
        }
      ],
      "name": "ProcessorAdded",
      "type": "event"
    },
    {
      "anonymous": false,
      "inputs": [
        {
          "indexed": true,
          "name": "account",
          "type": "address"
        },
        {
          "indexed": false,
          "name": "name",
          "type": "string"
        }
      ],
      "name": "ProcessorRemoved",
      "type": "event"
    },
    {
      "constant": true,
      "inputs": [
        {
          "name": "account",
          "type": "address"
        }
      ],
      "name": "getNameProcessor",
      "outputs": [
        {
          "name": "",
          "type": "string"
        }
      ],
      "payable": false,
      "stateMutability": "view",
      "type": "function"
    },
    {
      "constant": true,
      "inputs": [],
      "name": "amIProcessor",
      "outputs": [
        {
          "name": "",
          "type": "bool"
        }
      ],
      "payable": false,
      "stateMutability": "view",
      "type": "function"
    },
    {
      "constant": true,
      "inputs": [
        {
          "name": "account",
          "type": "address"
        }
      ],
      "name": "isProcessor",
      "outputs": [
        {
          "name": "",
          "type": "bool"
        }
      ],
      "payable": false,
      "stateMutability": "view",
      "type": "function"
    },
    {
      "constant": false,
      "inputs": [
        {
          "name": "account",
          "type": "address"
        },
        {
          "name": "name",
          "type": "string"
        }
      ],
      "name": "addProcessor",
      "outputs": [],
      "payable": false,
      "stateMutability": "nonpayable",
      "type": "function"
    },
    {
      "constant": false,
      "inputs": [],
      "name": "renounceProcessor",
      "outputs": [],
      "payable": false,
      "stateMutability": "nonpayable",
      "type": "function"
    }
  ],
  "bytecode": "0x60806040523480156200001157600080fd5b5060405162000dd638038062000dd6833981018060405260208110156200003757600080fd5b8101908080516401000000008111156200005057600080fd5b828101905060208101848111156200006757600080fd5b81518560018202830111640100000000821117156200008557600080fd5b5050929190505050620000a83382620000af640100000000026401000000009004565b50620003ef565b620000d5828260006200018f64010000000002620007ff17909291906401000000009004565b8173ffffffffffffffffffffffffffffffffffffffff167f0fe1f7e3664f42680baba928ae84ede0d48115d076ee0837a8b7e1158cf11ae3826040518080602001828103825283818151815260200191508051906020019080838360005b838110156200015057808201518184015260208101905062000133565b50505050905090810190601f1680156200017e5780820380516001836020036101000a031916815260200191505b509250505060405180910390a25050565b600073ffffffffffffffffffffffffffffffffffffffff168273ffffffffffffffffffffffffffffffffffffffff1614151515620001cc57600080fd5b620001e78383620002ab640100000000026401000000009004565b151515620001f457600080fd5b60018360000160008473ffffffffffffffffffffffffffffffffffffffff1673ffffffffffffffffffffffffffffffffffffffff16815260200190815260200160002060006101000a81548160ff021916908315150217905550808360010160008473ffffffffffffffffffffffffffffffffffffffff1673ffffffffffffffffffffffffffffffffffffffff1681526020019081526020016000209080519060200190620002a592919062000340565b50505050565b60008073ffffffffffffffffffffffffffffffffffffffff168273ffffffffffffffffffffffffffffffffffffffff1614151515620002e957600080fd5b8260000160008373ffffffffffffffffffffffffffffffffffffffff1673ffffffffffffffffffffffffffffffffffffffff16815260200190815260200160002060009054906101000a900460ff16905092915050565b828054600181600116156101000203166002900490600052602060002090601f016020900481019282601f106200038357805160ff1916838001178555620003b4565b82800160010185558215620003b4579182015b82811115620003b357825182559160200191906001019062000396565b5b509050620003c39190620003c7565b5090565b620003ec91905b80821115620003e8576000816000905550600101620003ce565b5090565b90565b6109d780620003ff6000396000f3fe60806040526004361061006c576000357c0100000000000000000000000000000000000000000000000000000000900463ffffffff1680620919881461007157806347fd0987146100da57806347febdb7146100f157806378e5099b14610120578063ae7c8abf14610208575b600080fd5b34801561007d57600080fd5b506100c06004803603602081101561009457600080fd5b81019080803573ffffffffffffffffffffffffffffffffffffffff1690602001909291905050506102d2565b604051808215151515815260200191505060405180910390f35b3480156100e657600080fd5b506100ef6102ef565b005b3480156100fd57600080fd5b506101066102fa565b604051808215151515815260200191505060405180910390f35b34801561012c57600080fd5b506102066004803603604081101561014357600080fd5b81019080803573ffffffffffffffffffffffffffffffffffffffff1690602001909291908035906020019064010000000081111561018057600080fd5b82018360208201111561019257600080fd5b803590602001918460018302840111640100000000831117156101b457600080fd5b91908080601f016020809104026020016040519081016040528093929190818152602001838380828437600081840152601f19601f820116905080830192505050505050509192919290505050610315565b005b34801561021457600080fd5b506102576004803603602081101561022b57600080fd5b81019080803573ffffffffffffffffffffffffffffffffffffffff1690602001909291905050506103c6565b6040518080602001828103825283818151815260200191508051906020019080838360005b8381101561029757808201518184015260208101905061027c565b50505050905090810190601f1680156102c45780820380516001836020036101000a031916815260200191505b509250505060405180910390f35b60006102e88260006103e390919063ffffffff16565b9050919050565b6102f833610477565b565b60006103103360006103e390919063ffffffff16565b905090565b61031e336102d2565b15156103b8576040517f08c379a000000000000000000000000000000000000000000000000000000000815260040180806020018281038252602b8152602001807f41636369c3b36e20736f6c6f207065726d6974696461207061726120656c204481526020017f6973747269627569646f7200000000000000000000000000000000000000000081525060400191505060405180910390fd5b6103c2828261059f565b5050565b60606103dc82600061066c90919063ffffffff16565b9050919050565b60008073ffffffffffffffffffffffffffffffffffffffff168273ffffffffffffffffffffffffffffffffffffffff161415151561042057600080fd5b8260000160008373ffffffffffffffffffffffffffffffffffffffff1673ffffffffffffffffffffffffffffffffffffffff16815260200190815260200160002060009054906101000a900460ff16905092915050565b61048b81600061075090919063ffffffff16565b8073ffffffffffffffffffffffffffffffffffffffff167f5c1a8e2b7bd6e5a51f31bf534b3179f1151d6b1436f7849806aeae92842e99ca600060010160008473ffffffffffffffffffffffffffffffffffffffff1673ffffffffffffffffffffffffffffffffffffffff168152602001908152602001600020604051808060200182810382528381815460018160011615610100020316600290048152602001915080546001816001161561010002031660029004801561058e5780601f106105635761010080835404028352916020019161058e565b820191906000526020600020905b81548152906001019060200180831161057157829003601f168201915b50509250505060405180910390a250565b6105b5828260006107ff9092919063ffffffff16565b8173ffffffffffffffffffffffffffffffffffffffff167f0fe1f7e3664f42680baba928ae84ede0d48115d076ee0837a8b7e1158cf11ae3826040518080602001828103825283818151815260200191508051906020019080838360005b8381101561062e578082015181840152602081019050610613565b50505050905090810190601f16801561065b5780820380516001836020036101000a031916815260200191505b509250505060405180910390a25050565b60608260010160008373ffffffffffffffffffffffffffffffffffffffff1673ffffffffffffffffffffffffffffffffffffffff1681526020019081526020016000208054600181600116156101000203166002900480601f0160208091040260200160405190810160405280929190818152602001828054600181600116156101000203166002900480156107435780601f1061071857610100808354040283529160200191610743565b820191906000526020600020905b81548152906001019060200180831161072657829003601f168201915b5050505050905092915050565b600073ffffffffffffffffffffffffffffffffffffffff168173ffffffffffffffffffffffffffffffffffffffff161415151561078c57600080fd5b61079682826103e3565b15156107a157600080fd5b60008260000160008373ffffffffffffffffffffffffffffffffffffffff1673ffffffffffffffffffffffffffffffffffffffff16815260200190815260200160002060006101000a81548160ff0219169083151502179055505050565b600073ffffffffffffffffffffffffffffffffffffffff168273ffffffffffffffffffffffffffffffffffffffff161415151561083b57600080fd5b61084583836103e3565b15151561085157600080fd5b60018360000160008473ffffffffffffffffffffffffffffffffffffffff1673ffffffffffffffffffffffffffffffffffffffff16815260200190815260200160002060006101000a81548160ff021916908315150217905550808360010160008473ffffffffffffffffffffffffffffffffffffffff1673ffffffffffffffffffffffffffffffffffffffff1681526020019081526020016000209080519060200190610900929190610906565b50505050565b828054600181600116156101000203166002900490600052602060002090601f016020900481019282601f1061094757805160ff1916838001178555610975565b82800160010185558215610975579182015b82811115610974578251825591602001919060010190610959565b5b5090506109829190610986565b5090565b6109a891905b808211156109a457600081600090555060010161098c565b5090565b9056fea165627a7a723058209125f980d348ac0ce0b3bfb4eebcb5a7b15560eae27620c48806573a40f6e9f50029",
  "source": "pragma solidity >=0.4.24 < 0.6.4;\r\n\r\n// Import the library 'Roles'\r\nimport \"./Roles.sol\";\r\n\r\n// Define a contract 'ProcessorRole' to manage this role - add, remove, check\r\ncontract ProcessorRole {\r\n  using Roles for Roles.Role;\r\n  // Define 2 events, one for Adding, and other for Removing\r\n  event ProcessorAdded(address indexed account, string name);\r\n  event ProcessorRemoved(address indexed account , string name);\r\n  // Define a struct 'Processors' by inheriting from 'Roles' library, struct Role\r\n  Roles.Role private Processors;\r\n  // In the constructor make the address that deploys this contract the 1st Processor\r\n  constructor(string memory name) public {\r\n    _addProcessor(msg.sender, name);\r\n  }\r\n\r\n  // Define a modifier that checks to see if msg.sender has the appropriate role\r\n  modifier onlyProcessor() {\r\n    require(isProcessor(msg.sender), \"Acci贸n solo permitida para el Distribuidor\");\r\n    _;\r\n  }\r\n      function getNameProcessor(address account) public view returns (string memory) {\r\n        return Processors.getName(account);\r\n    }\r\n     /// Function to check caller `msg.sender` if he has Processor role\r\n    /// @return boolean for caller address state in `_Processors` Role\r\n    function amIProcessor() public view returns (bool) {\r\n        return Processors.has(msg.sender);\r\n    }\r\n\r\n  // Define a function 'isProcessor' to check this role\r\n  function isProcessor(address account) public view returns (bool) {\r\n     return Processors.has(account);\r\n  }\r\n\r\n  // Define a function 'addProcessor' that adds this role\r\n  function addProcessor(address account, string memory name) public onlyProcessor {\r\n    _addProcessor(account, name);\r\n  }\r\n\r\n  // Define a function 'renounceProcessor' to renounce this role\r\n  function renounceProcessor() public {\r\n    _removeProcessor(msg.sender);\r\n  }\r\n\r\n  // Define an internal function '_addProcessor' to add this role, called by 'addProcessor'\r\n  function _addProcessor(address account, string memory name) internal {\r\n    Processors.add(account,name);\r\n    emit ProcessorAdded(account, name);\r\n  }\r\n\r\n  // Define an internal function '_removeProcessor' to remove this role, called by 'removeProcessor'\r\n  function _removeProcessor(address account) internal {\r\n    Processors.remove(account);\r\n    emit ProcessorRemoved(account, Processors.name[account]);\r\n  }\r\n}",
  "sourcePath": "C:\\Users\\Usuario\\Desktop\\Ethereum-Drug-Supplychain-master\\contracts\\roles\\ProcessorRole.sol",
  "compiler": {
    "name": "solc",
    "version": "0.5.0+commit.1d4f565a.Emscripten.clang"
  },
  "schemaVersion": "3.0.23",
  "updatedAt": "2020-07-31T15:16:04.533Z",
  "devdoc": {
    "methods": {
      "amIProcessor()": {
        "return": "boolean for caller address state in `_Processors` Role"
      }
    }
  },
  "userdoc": {
    "methods": {}
  }
}