{
  "contractName": "RetailerRole",
  "abi": [
    {
      "inputs": [
        {
          "name": "name",
          "type": "string"
        }
      ],
      "payable": false,
      "stateMutability": "nonpayable",
      "type": "constructor"
    },
    {
      "anonymous": false,
      "inputs": [
        {
          "indexed": true,
          "name": "account",
          "type": "address"
        },
        {
          "indexed": false,
          "name": "name",
          "type": "string"
        }
      ],
      "name": "RetailerAdded",
      "type": "event"
    },
    {
      "anonymous": false,
      "inputs": [
        {
          "indexed": true,
          "name": "account",
          "type": "address"
        },
        {
          "indexed": false,
          "name": "name",
          "type": "string"
        }
      ],
      "name": "RetailerRemoved",
      "type": "event"
    },
    {
      "constant": true,
      "inputs": [
        {
          "name": "account",
          "type": "address"
        }
      ],
      "name": "getNameRetailer",
      "outputs": [
        {
          "name": "",
          "type": "string"
        }
      ],
      "payable": false,
      "stateMutability": "view",
      "type": "function"
    },
    {
      "constant": true,
      "inputs": [],
      "name": "amIRetailer",
      "outputs": [
        {
          "name": "",
          "type": "bool"
        }
      ],
      "payable": false,
      "stateMutability": "view",
      "type": "function"
    },
    {
      "constant": true,
      "inputs": [
        {
          "name": "account",
          "type": "address"
        }
      ],
      "name": "isRetailer",
      "outputs": [
        {
          "name": "",
          "type": "bool"
        }
      ],
      "payable": false,
      "stateMutability": "view",
      "type": "function"
    },
    {
      "constant": false,
      "inputs": [
        {
          "name": "account",
          "type": "address"
        },
        {
          "name": "name",
          "type": "string"
        }
      ],
      "name": "addRetailer",
      "outputs": [],
      "payable": false,
      "stateMutability": "nonpayable",
      "type": "function"
    },
    {
      "constant": false,
      "inputs": [],
      "name": "renounceRetailer",
      "outputs": [],
      "payable": false,
      "stateMutability": "nonpayable",
      "type": "function"
    }
  ],
  "bytecode": "0x60806040523480156200001157600080fd5b5060405162000dd738038062000dd7833981018060405260208110156200003757600080fd5b8101908080516401000000008111156200005057600080fd5b828101905060208101848111156200006757600080fd5b81518560018202830111640100000000821117156200008557600080fd5b5050929190505050620000a83382620000af640100000000026401000000009004565b50620003ef565b620000d5828260006200018f640100000000026200075117909291906401000000009004565b8173ffffffffffffffffffffffffffffffffffffffff167fef168356b7689c5f335452a945fd819f397250718544782d21d651705c6ea0bb826040518080602001828103825283818151815260200191508051906020019080838360005b838110156200015057808201518184015260208101905062000133565b50505050905090810190601f1680156200017e5780820380516001836020036101000a031916815260200191505b509250505060405180910390a25050565b600073ffffffffffffffffffffffffffffffffffffffff168273ffffffffffffffffffffffffffffffffffffffff1614151515620001cc57600080fd5b620001e78383620002ab640100000000026401000000009004565b151515620001f457600080fd5b60018360000160008473ffffffffffffffffffffffffffffffffffffffff1673ffffffffffffffffffffffffffffffffffffffff16815260200190815260200160002060006101000a81548160ff021916908315150217905550808360010160008473ffffffffffffffffffffffffffffffffffffffff1673ffffffffffffffffffffffffffffffffffffffff1681526020019081526020016000209080519060200190620002a592919062000340565b50505050565b60008073ffffffffffffffffffffffffffffffffffffffff168273ffffffffffffffffffffffffffffffffffffffff1614151515620002e957600080fd5b8260000160008373ffffffffffffffffffffffffffffffffffffffff1673ffffffffffffffffffffffffffffffffffffffff16815260200190815260200160002060009054906101000a900460ff16905092915050565b828054600181600116156101000203166002900490600052602060002090601f016020900481019282601f106200038357805160ff1916838001178555620003b4565b82800160010185558215620003b4579182015b82811115620003b357825182559160200191906001019062000396565b5b509050620003c39190620003c7565b5090565b620003ec91905b80821115620003e8576000816000905550600101620003ce565b5090565b90565b6109d880620003ff6000396000f3fe60806040526004361061006d576000357c0100000000000000000000000000000000000000000000000000000000900463ffffffff1680631d375b0c146100725780635da09b88146100a15780635df80ce31461010a57806375c6da23146101d4578063db0e6a2f146102bc575b600080fd5b34801561007e57600080fd5b506100876102d3565b604051808215151515815260200191505060405180910390f35b3480156100ad57600080fd5b506100f0600480360360208110156100c457600080fd5b81019080803573ffffffffffffffffffffffffffffffffffffffff1690602001909291905050506102ee565b604051808215151515815260200191505060405180910390f35b34801561011657600080fd5b506101596004803603602081101561012d57600080fd5b81019080803573ffffffffffffffffffffffffffffffffffffffff16906020019092919050505061030b565b6040518080602001828103825283818151815260200191508051906020019080838360005b8381101561019957808201518184015260208101905061017e565b50505050905090810190601f1680156101c65780820380516001836020036101000a031916815260200191505b509250505060405180910390f35b3480156101e057600080fd5b506102ba600480360360408110156101f757600080fd5b81019080803573ffffffffffffffffffffffffffffffffffffffff1690602001909291908035906020019064010000000081111561023457600080fd5b82018360208201111561024657600080fd5b8035906020019184600183028401116401000000008311171561026857600080fd5b91908080601f016020809104026020016040519081016040528093929190818152602001838380828437600081840152601f19601f820116905080830192505050505050509192919290505050610328565b005b3480156102c857600080fd5b506102d16103d9565b005b60006102e93360006103e490919063ffffffff16565b905090565b60006103048260006103e490919063ffffffff16565b9050919050565b606061032182600061047890919063ffffffff16565b9050919050565b610331336102ee565b15156103cb576040517f08c379a00000000000000000000000000000000000000000000000000000000081526004018080602001828103825260278152602001807f41636369c3b36e20736f6c6f207065726d6974696461207061726120656c205281526020017f657461696c65720000000000000000000000000000000000000000000000000081525060400191505060405180910390fd5b6103d5828261055c565b5050565b6103e233610629565b565b60008073ffffffffffffffffffffffffffffffffffffffff168273ffffffffffffffffffffffffffffffffffffffff161415151561042157600080fd5b8260000160008373ffffffffffffffffffffffffffffffffffffffff1673ffffffffffffffffffffffffffffffffffffffff16815260200190815260200160002060009054906101000a900460ff16905092915050565b60608260010160008373ffffffffffffffffffffffffffffffffffffffff1673ffffffffffffffffffffffffffffffffffffffff1681526020019081526020016000208054600181600116156101000203166002900480601f01602080910402602001604051908101604052809291908181526020018280546001816001161561010002031660029004801561054f5780601f106105245761010080835404028352916020019161054f565b820191906000526020600020905b81548152906001019060200180831161053257829003601f168201915b5050505050905092915050565b610572828260006107519092919063ffffffff16565b8173ffffffffffffffffffffffffffffffffffffffff167fef168356b7689c5f335452a945fd819f397250718544782d21d651705c6ea0bb826040518080602001828103825283818151815260200191508051906020019080838360005b838110156105eb5780820151818401526020810190506105d0565b50505050905090810190601f1680156106185780820380516001836020036101000a031916815260200191505b509250505060405180910390a25050565b61063d81600061085890919063ffffffff16565b8073ffffffffffffffffffffffffffffffffffffffff167f4e3b46aad2af34c9efa6da71118861b1bc1d38449d8deb162106254948aceb85600060010160008473ffffffffffffffffffffffffffffffffffffffff1673ffffffffffffffffffffffffffffffffffffffff16815260200190815260200160002060405180806020018281038252838181546001816001161561010002031660029004815260200191508054600181600116156101000203166002900480156107405780601f1061071557610100808354040283529160200191610740565b820191906000526020600020905b81548152906001019060200180831161072357829003601f168201915b50509250505060405180910390a250565b600073ffffffffffffffffffffffffffffffffffffffff168273ffffffffffffffffffffffffffffffffffffffff161415151561078d57600080fd5b61079783836103e4565b1515156107a357600080fd5b60018360000160008473ffffffffffffffffffffffffffffffffffffffff1673ffffffffffffffffffffffffffffffffffffffff16815260200190815260200160002060006101000a81548160ff021916908315150217905550808360010160008473ffffffffffffffffffffffffffffffffffffffff1673ffffffffffffffffffffffffffffffffffffffff1681526020019081526020016000209080519060200190610852929190610907565b50505050565b600073ffffffffffffffffffffffffffffffffffffffff168173ffffffffffffffffffffffffffffffffffffffff161415151561089457600080fd5b61089e82826103e4565b15156108a957600080fd5b60008260000160008373ffffffffffffffffffffffffffffffffffffffff1673ffffffffffffffffffffffffffffffffffffffff16815260200190815260200160002060006101000a81548160ff0219169083151502179055505050565b828054600181600116156101000203166002900490600052602060002090601f016020900481019282601f1061094857805160ff1916838001178555610976565b82800160010185558215610976579182015b8281111561097557825182559160200191906001019061095a565b5b5090506109839190610987565b5090565b6109a991905b808211156109a557600081600090555060010161098d565b5090565b9056fea165627a7a723058209425c4ebe2151a585ec0e78fd57f54f088d59ad0f2084ee0701dfd8b251810a90029",
  "source": "pragma solidity >=0.4.24 < 0.6.4;\r\n\r\n// Import the library 'Roles'\r\nimport \"./Roles.sol\";\r\n\r\n// Define a contract 'RetailerRole' to manage this role - add, remove, check\r\ncontract RetailerRole {\r\n  using Roles for Roles.Role;\r\n  // Define 2 events, one for Adding, and other for Removing\r\n  event RetailerAdded(address indexed account, string name);\r\n  event RetailerRemoved(address indexed account , string name);\r\n  // Define a struct 'Retailers' by inheriting from 'Roles' library, struct Role\r\n  Roles.Role private Retailers;\r\n  // In the constructor make the address that deploys this contract the 1st Retailer\r\n  constructor(string memory name) public {\r\n    _addRetailer(msg.sender, name);\r\n  }\r\n\r\n  // Define a modifier that checks to see if msg.sender has the appropriate role\r\n  modifier onlyRetailer() {\r\n    require(isRetailer(msg.sender), \"Acci贸n solo permitida para el Retailer\");\r\n    _;\r\n  }\r\n      function getNameRetailer(address account) public view returns (string memory) {\r\n        return Retailers.getName(account);\r\n    }\r\n     /// Function to check caller `msg.sender` if he has Retailer role\r\n    /// @return boolean for caller address state in `_Retailers` Role\r\n    function amIRetailer() public view returns (bool) {\r\n        return Retailers.has(msg.sender);\r\n    }\r\n\r\n  // Define a function 'isRetailer' to check this role\r\n  function isRetailer(address account) public view returns (bool) {\r\n     return Retailers.has(account);\r\n  }\r\n\r\n  // Define a function 'addRetailer' that adds this role\r\n  function addRetailer(address account, string memory name) public onlyRetailer {\r\n    _addRetailer(account, name);\r\n  }\r\n\r\n  // Define a function 'renounceRetailer' to renounce this role\r\n  function renounceRetailer() public {\r\n    _removeRetailer(msg.sender);\r\n  }\r\n\r\n  // Define an internal function '_addRetailer' to add this role, called by 'addRetailer'\r\n  function _addRetailer(address account, string memory name) internal {\r\n    Retailers.add(account,name);\r\n    emit RetailerAdded(account, name);\r\n  }\r\n\r\n  // Define an internal function '_removeRetailer' to remove this role, called by 'removeRetailer'\r\n  function _removeRetailer(address account) internal {\r\n    Retailers.remove(account);\r\n    emit RetailerRemoved(account, Retailers.name[account]);\r\n  }\r\n}",
  "sourcePath": "C:\\Users\\Usuario\\Desktop\\Ethereum-Drug-Supplychain-master\\contracts\\roles\\RetailerRole.sol",
  "compiler": {
    "name": "solc",
    "version": "0.5.0+commit.1d4f565a.Emscripten.clang"
  },
  "schemaVersion": "3.0.23",
  "updatedAt": "2020-07-31T15:16:04.543Z",
  "devdoc": {
    "methods": {
      "amIRetailer()": {
        "return": "boolean for caller address state in `_Retailers` Role"
      }
    }
  },
  "userdoc": {
    "methods": {}
  }
}