{
  "contractName": "Rolable",
  "abi": [
    {
      "constant": true,
      "inputs": [
        {
          "name": "account",
          "type": "address"
        }
      ],
      "name": "isProcessor",
      "outputs": [
        {
          "name": "",
          "type": "bool"
        }
      ],
      "payable": false,
      "stateMutability": "view",
      "type": "function"
    },
    {
      "constant": false,
      "inputs": [
        {
          "name": "account",
          "type": "address"
        },
        {
          "name": "name",
          "type": "string"
        }
      ],
      "name": "addDistributor",
      "outputs": [],
      "payable": false,
      "stateMutability": "nonpayable",
      "type": "function"
    },
    {
      "constant": true,
      "inputs": [
        {
          "name": "account",
          "type": "address"
        }
      ],
      "name": "isManufacturer",
      "outputs": [
        {
          "name": "",
          "type": "bool"
        }
      ],
      "payable": false,
      "stateMutability": "view",
      "type": "function"
    },
    {
      "constant": true,
      "inputs": [],
      "name": "amIRetailer",
      "outputs": [
        {
          "name": "",
          "type": "bool"
        }
      ],
      "payable": false,
      "stateMutability": "view",
      "type": "function"
    },
    {
      "constant": false,
      "inputs": [
        {
          "name": "account",
          "type": "address"
        },
        {
          "name": "name",
          "type": "string"
        }
      ],
      "name": "addConsumer",
      "outputs": [],
      "payable": false,
      "stateMutability": "nonpayable",
      "type": "function"
    },
    {
      "constant": true,
      "inputs": [
        {
          "name": "account",
          "type": "address"
        }
      ],
      "name": "getNameDistributor",
      "outputs": [
        {
          "name": "",
          "type": "string"
        }
      ],
      "payable": false,
      "stateMutability": "view",
      "type": "function"
    },
    {
      "constant": true,
      "inputs": [
        {
          "name": "account",
          "type": "address"
        }
      ],
      "name": "getNameManufacturer",
      "outputs": [
        {
          "name": "",
          "type": "string"
        }
      ],
      "payable": false,
      "stateMutability": "view",
      "type": "function"
    },
    {
      "constant": false,
      "inputs": [],
      "name": "renounceProcessor",
      "outputs": [],
      "payable": false,
      "stateMutability": "nonpayable",
      "type": "function"
    },
    {
      "constant": true,
      "inputs": [],
      "name": "amIProcessor",
      "outputs": [
        {
          "name": "",
          "type": "bool"
        }
      ],
      "payable": false,
      "stateMutability": "view",
      "type": "function"
    },
    {
      "constant": true,
      "inputs": [
        {
          "name": "account",
          "type": "address"
        }
      ],
      "name": "getNameConsumer",
      "outputs": [
        {
          "name": "",
          "type": "string"
        }
      ],
      "payable": false,
      "stateMutability": "view",
      "type": "function"
    },
    {
      "constant": true,
      "inputs": [
        {
          "name": "account",
          "type": "address"
        }
      ],
      "name": "isRetailer",
      "outputs": [
        {
          "name": "",
          "type": "bool"
        }
      ],
      "payable": false,
      "stateMutability": "view",
      "type": "function"
    },
    {
      "constant": true,
      "inputs": [
        {
          "name": "account",
          "type": "address"
        }
      ],
      "name": "getNameRetailer",
      "outputs": [
        {
          "name": "",
          "type": "string"
        }
      ],
      "payable": false,
      "stateMutability": "view",
      "type": "function"
    },
    {
      "constant": false,
      "inputs": [],
      "name": "renounceConsumer",
      "outputs": [],
      "payable": false,
      "stateMutability": "nonpayable",
      "type": "function"
    },
    {
      "constant": false,
      "inputs": [],
      "name": "renounceDistributor",
      "outputs": [],
      "payable": false,
      "stateMutability": "nonpayable",
      "type": "function"
    },
    {
      "constant": false,
      "inputs": [
        {
          "name": "account",
          "type": "address"
        },
        {
          "name": "name",
          "type": "string"
        }
      ],
      "name": "addRetailer",
      "outputs": [],
      "payable": false,
      "stateMutability": "nonpayable",
      "type": "function"
    },
    {
      "constant": false,
      "inputs": [
        {
          "name": "account",
          "type": "address"
        },
        {
          "name": "name",
          "type": "string"
        }
      ],
      "name": "addProcessor",
      "outputs": [],
      "payable": false,
      "stateMutability": "nonpayable",
      "type": "function"
    },
    {
      "constant": false,
      "inputs": [],
      "name": "renounceFarmer",
      "outputs": [],
      "payable": false,
      "stateMutability": "nonpayable",
      "type": "function"
    },
    {
      "constant": true,
      "inputs": [
        {
          "name": "account",
          "type": "address"
        }
      ],
      "name": "isConsumer",
      "outputs": [
        {
          "name": "",
          "type": "bool"
        }
      ],
      "payable": false,
      "stateMutability": "view",
      "type": "function"
    },
    {
      "constant": false,
      "inputs": [
        {
          "name": "account",
          "type": "address"
        },
        {
          "name": "name",
          "type": "string"
        }
      ],
      "name": "addFarmer",
      "outputs": [],
      "payable": false,
      "stateMutability": "nonpayable",
      "type": "function"
    },
    {
      "constant": false,
      "inputs": [
        {
          "name": "account",
          "type": "address"
        },
        {
          "name": "name",
          "type": "string"
        }
      ],
      "name": "addManufacturer",
      "outputs": [],
      "payable": false,
      "stateMutability": "nonpayable",
      "type": "function"
    },
    {
      "constant": true,
      "inputs": [
        {
          "name": "account",
          "type": "address"
        }
      ],
      "name": "isDistributor",
      "outputs": [
        {
          "name": "",
          "type": "bool"
        }
      ],
      "payable": false,
      "stateMutability": "view",
      "type": "function"
    },
    {
      "constant": true,
      "inputs": [],
      "name": "amIConsumer",
      "outputs": [
        {
          "name": "",
          "type": "bool"
        }
      ],
      "payable": false,
      "stateMutability": "view",
      "type": "function"
    },
    {
      "constant": true,
      "inputs": [],
      "name": "amIFarmer",
      "outputs": [
        {
          "name": "",
          "type": "bool"
        }
      ],
      "payable": false,
      "stateMutability": "view",
      "type": "function"
    },
    {
      "constant": true,
      "inputs": [
        {
          "name": "account",
          "type": "address"
        }
      ],
      "name": "getNameProcessor",
      "outputs": [
        {
          "name": "",
          "type": "string"
        }
      ],
      "payable": false,
      "stateMutability": "view",
      "type": "function"
    },
    {
      "constant": true,
      "inputs": [
        {
          "name": "account",
          "type": "address"
        }
      ],
      "name": "isFarmer",
      "outputs": [
        {
          "name": "",
          "type": "bool"
        }
      ],
      "payable": false,
      "stateMutability": "view",
      "type": "function"
    },
    {
      "constant": true,
      "inputs": [],
      "name": "amIDistributor",
      "outputs": [
        {
          "name": "",
          "type": "bool"
        }
      ],
      "payable": false,
      "stateMutability": "view",
      "type": "function"
    },
    {
      "constant": false,
      "inputs": [],
      "name": "renounceRetailer",
      "outputs": [],
      "payable": false,
      "stateMutability": "nonpayable",
      "type": "function"
    },
    {
      "constant": false,
      "inputs": [],
      "name": "renounceManufacturer",
      "outputs": [],
      "payable": false,
      "stateMutability": "nonpayable",
      "type": "function"
    },
    {
      "constant": true,
      "inputs": [],
      "name": "amIManufacturer",
      "outputs": [
        {
          "name": "",
          "type": "bool"
        }
      ],
      "payable": false,
      "stateMutability": "view",
      "type": "function"
    },
    {
      "constant": true,
      "inputs": [
        {
          "name": "account",
          "type": "address"
        }
      ],
      "name": "getNameFarmer",
      "outputs": [
        {
          "name": "",
          "type": "string"
        }
      ],
      "payable": false,
      "stateMutability": "view",
      "type": "function"
    },
    {
      "anonymous": false,
      "inputs": [
        {
          "indexed": true,
          "name": "account",
          "type": "address"
        },
        {
          "indexed": false,
          "name": "name",
          "type": "string"
        }
      ],
      "name": "ManufacturerAdded",
      "type": "event"
    },
    {
      "anonymous": false,
      "inputs": [
        {
          "indexed": true,
          "name": "account",
          "type": "address"
        },
        {
          "indexed": false,
          "name": "name",
          "type": "string"
        }
      ],
      "name": "ManufacturerRemoved",
      "type": "event"
    },
    {
      "anonymous": false,
      "inputs": [
        {
          "indexed": true,
          "name": "account",
          "type": "address"
        },
        {
          "indexed": false,
          "name": "name",
          "type": "string"
        }
      ],
      "name": "RetailerAdded",
      "type": "event"
    },
    {
      "anonymous": false,
      "inputs": [
        {
          "indexed": true,
          "name": "account",
          "type": "address"
        },
        {
          "indexed": false,
          "name": "name",
          "type": "string"
        }
      ],
      "name": "RetailerRemoved",
      "type": "event"
    },
    {
      "anonymous": false,
      "inputs": [
        {
          "indexed": true,
          "name": "account",
          "type": "address"
        },
        {
          "indexed": false,
          "name": "name",
          "type": "string"
        }
      ],
      "name": "ProcessorAdded",
      "type": "event"
    },
    {
      "anonymous": false,
      "inputs": [
        {
          "indexed": true,
          "name": "account",
          "type": "address"
        },
        {
          "indexed": false,
          "name": "name",
          "type": "string"
        }
      ],
      "name": "ProcessorRemoved",
      "type": "event"
    },
    {
      "anonymous": false,
      "inputs": [
        {
          "indexed": true,
          "name": "account",
          "type": "address"
        },
        {
          "indexed": false,
          "name": "name",
          "type": "string"
        }
      ],
      "name": "DistributorAdded",
      "type": "event"
    },
    {
      "anonymous": false,
      "inputs": [
        {
          "indexed": true,
          "name": "account",
          "type": "address"
        },
        {
          "indexed": false,
          "name": "name",
          "type": "string"
        }
      ],
      "name": "DistributorRemoved",
      "type": "event"
    },
    {
      "anonymous": false,
      "inputs": [
        {
          "indexed": true,
          "name": "account",
          "type": "address"
        },
        {
          "indexed": false,
          "name": "name",
          "type": "string"
        }
      ],
      "name": "FarmerAdded",
      "type": "event"
    },
    {
      "anonymous": false,
      "inputs": [
        {
          "indexed": true,
          "name": "account",
          "type": "address"
        },
        {
          "indexed": false,
          "name": "name",
          "type": "string"
        }
      ],
      "name": "FarmerRemoved",
      "type": "event"
    },
    {
      "anonymous": false,
      "inputs": [
        {
          "indexed": true,
          "name": "account",
          "type": "address"
        },
        {
          "indexed": false,
          "name": "name",
          "type": "string"
        }
      ],
      "name": "ConsumerAdded",
      "type": "event"
    },
    {
      "anonymous": false,
      "inputs": [
        {
          "indexed": true,
          "name": "account",
          "type": "address"
        },
        {
          "indexed": false,
          "name": "name",
          "type": "string"
        }
      ],
      "name": "ConsumerRemoved",
      "type": "event"
    },
    {
      "constant": true,
      "inputs": [],
      "name": "whoAmI",
      "outputs": [
        {
          "name": "consumer",
          "type": "bool"
        },
        {
          "name": "retailer",
          "type": "bool"
        },
        {
          "name": "distributor",
          "type": "bool"
        },
        {
          "name": "manufacturer",
          "type": "bool"
        },
        {
          "name": "processor",
          "type": "bool"
        },
        {
          "name": "farmer",
          "type": "bool"
        }
      ],
      "payable": false,
      "stateMutability": "view",
      "type": "function"
    }
  ],
  "bytecode": "0x60806040526040805190810160405280600a81526020017f46616272696361646f72000000000000000000000000000000000000000000008152506040805190810160405280600881526020017f526574656c6965720000000000000000000000000000000000000000000000008152506040805190810160405280600a81526020017f50726f63657361646f72000000000000000000000000000000000000000000008152506040805190810160405280600c81526020017f446973747269627569646f7200000000000000000000000000000000000000008152506040805190810160405280600a81526020017f4167726963756c746f72000000000000000000000000000000000000000000008152506040805190810160405280600a81526020017f436f6e73756d69646f7200000000000000000000000000000000000000000000815250620001633382620001f6640100000000026401000000009004565b506200017f3382620002d6640100000000026401000000009004565b506200019b3382620003b6640100000000026401000000009004565b50620001b7338262000496640100000000026401000000009004565b50620001d3338262000576640100000000026401000000009004565b50620001ef338262000656640100000000026401000000009004565b5062000996565b6200021c8282600062000736640100000000026200242417909291906401000000009004565b8173ffffffffffffffffffffffffffffffffffffffff167fe53c8cba2d3adcba576da625a6ede1ffdae51f12e59ec3d94204eba247cc19ac826040518080602001828103825283818151815260200191508051906020019080838360005b83811015620002975780820151818401526020810190506200027a565b50505050905090810190601f168015620002c55780820380516001836020036101000a031916815260200191505b509250505060405180910390a25050565b620002fc8282600262000736640100000000026200242417909291906401000000009004565b8173ffffffffffffffffffffffffffffffffffffffff167f2d3331c2b3444f4cc5283c8d148c8508e8ac7ce8ecf49d2896a17fd0a4e29d5b826040518080602001828103825283818151815260200191508051906020019080838360005b83811015620003775780820151818401526020810190506200035a565b50505050905090810190601f168015620003a55780820380516001836020036101000a031916815260200191505b509250505060405180910390a25050565b620003dc8282600462000736640100000000026200242417909291906401000000009004565b8173ffffffffffffffffffffffffffffffffffffffff167fd5f2429a2bf80f34a91686b8f8d62bb9eae8dc57860a6d9897513d36c9696beb826040518080602001828103825283818151815260200191508051906020019080838360005b83811015620004575780820151818401526020810190506200043a565b50505050905090810190601f168015620004855780820380516001836020036101000a031916815260200191505b509250505060405180910390a25050565b620004bc8282600662000736640100000000026200242417909291906401000000009004565b8173ffffffffffffffffffffffffffffffffffffffff167f0fe1f7e3664f42680baba928ae84ede0d48115d076ee0837a8b7e1158cf11ae3826040518080602001828103825283818151815260200191508051906020019080838360005b83811015620005375780820151818401526020810190506200051a565b50505050905090810190601f168015620005655780820380516001836020036101000a031916815260200191505b509250505060405180910390a25050565b6200059c8282600862000736640100000000026200242417909291906401000000009004565b8173ffffffffffffffffffffffffffffffffffffffff167fef168356b7689c5f335452a945fd819f397250718544782d21d651705c6ea0bb826040518080602001828103825283818151815260200191508051906020019080838360005b8381101562000617578082015181840152602081019050620005fa565b50505050905090810190601f168015620006455780820380516001836020036101000a031916815260200191505b509250505060405180910390a25050565b6200067c8282600a62000736640100000000026200242417909291906401000000009004565b8173ffffffffffffffffffffffffffffffffffffffff167f1945d2c71d577291ed89748399bbcdcedbcb3611bdd9032a98b82b00e636f388826040518080602001828103825283818151815260200191508051906020019080838360005b83811015620006f7578082015181840152602081019050620006da565b50505050905090810190601f168015620007255780820380516001836020036101000a031916815260200191505b509250505060405180910390a25050565b600073ffffffffffffffffffffffffffffffffffffffff168273ffffffffffffffffffffffffffffffffffffffff16141515156200077357600080fd5b6200078e838362000852640100000000026401000000009004565b1515156200079b57600080fd5b60018360000160008473ffffffffffffffffffffffffffffffffffffffff1673ffffffffffffffffffffffffffffffffffffffff16815260200190815260200160002060006101000a81548160ff021916908315150217905550808360010160008473ffffffffffffffffffffffffffffffffffffffff1673ffffffffffffffffffffffffffffffffffffffff16815260200190815260200160002090805190602001906200084c929190620008e7565b50505050565b60008073ffffffffffffffffffffffffffffffffffffffff168273ffffffffffffffffffffffffffffffffffffffff16141515156200089057600080fd5b8260000160008373ffffffffffffffffffffffffffffffffffffffff1673ffffffffffffffffffffffffffffffffffffffff16815260200190815260200160002060009054906101000a900460ff16905092915050565b828054600181600116156101000203166002900490600052602060002090601f016020900481019282601f106200092a57805160ff19168380011785556200095b565b828001600101855582156200095b579182015b828111156200095a5782518255916020019190600101906200093d565b5b5090506200096a91906200096e565b5090565b6200099391905b808211156200098f57600081600090555060010162000975565b5090565b90565b6126ab80620009a66000396000f3fe60806040526004361061018a576000357c0100000000000000000000000000000000000000000000000000000000900463ffffffff1680620919881461018f5780631214d2fd146101f857806317d4a491146102e05780631d375b0c14610349578063227cca091461037857806337d76c1b1461046057806346cf64621461052a57806347fd0987146105f457806347febdb71461060b5780634db5d4f81461063a5780635da09b88146107045780635df80ce31461076d57806361e6982d14610837578063644241db1461084e57806375c6da231461086557806378e5099b1461094d57806380fc0ce414610a35578063834ff73914610a4c57806389671bf014610ab55780638a8e0a2e14610b9d5780638f0c86fa14610c855780639af687a614610cee578063a35628c614610d1d578063ae7c8abf14610d4c578063b942906914610e16578063cf19667114610e7f578063da91254c14610eae578063db0e6a2f14610f14578063de07f34e14610f2b578063e1d6f86f14610f42578063f7b5e0d214610f71575b600080fd5b34801561019b57600080fd5b506101de600480360360208110156101b257600080fd5b81019080803573ffffffffffffffffffffffffffffffffffffffff16906020019092919050505061103b565b604051808215151515815260200191505060405180910390f35b34801561020457600080fd5b506102de6004803603604081101561021b57600080fd5b81019080803573ffffffffffffffffffffffffffffffffffffffff1690602001909291908035906020019064010000000081111561025857600080fd5b82018360208201111561026a57600080fd5b8035906020019184600183028401116401000000008311171561028c57600080fd5b91908080601f016020809104026020016040519081016040528093929190818152602001838380828437600081840152601f19601f820116905080830192505050505050509192919290505050611058565b005b3480156102ec57600080fd5b5061032f6004803603602081101561030357600080fd5b81019080803573ffffffffffffffffffffffffffffffffffffffff169060200190929190505050611109565b604051808215151515815260200191505060405180910390f35b34801561035557600080fd5b5061035e611126565b604051808215151515815260200191505060405180910390f35b34801561038457600080fd5b5061045e6004803603604081101561039b57600080fd5b81019080803573ffffffffffffffffffffffffffffffffffffffff169060200190929190803590602001906401000000008111156103d857600080fd5b8201836020820111156103ea57600080fd5b8035906020019184600183028401116401000000008311171561040c57600080fd5b91908080601f016020809104026020016040519081016040528093929190818152602001838380828437600081840152601f19601f820116905080830192505050505050509192919290505050611141565b005b34801561046c57600080fd5b506104af6004803603602081101561048357600080fd5b81019080803573ffffffffffffffffffffffffffffffffffffffff1690602001909291905050506111f2565b6040518080602001828103825283818151815260200191508051906020019080838360005b838110156104ef5780820151818401526020810190506104d4565b50505050905090810190601f16801561051c5780820380516001836020036101000a031916815260200191505b509250505060405180910390f35b34801561053657600080fd5b506105796004803603602081101561054d57600080fd5b81019080803573ffffffffffffffffffffffffffffffffffffffff16906020019092919050505061120f565b6040518080602001828103825283818151815260200191508051906020019080838360005b838110156105b957808201518184015260208101905061059e565b50505050905090810190601f1680156105e65780820380516001836020036101000a031916815260200191505b509250505060405180910390f35b34801561060057600080fd5b5061060961122c565b005b34801561061757600080fd5b50610620611237565b604051808215151515815260200191505060405180910390f35b34801561064657600080fd5b506106896004803603602081101561065d57600080fd5b81019080803573ffffffffffffffffffffffffffffffffffffffff169060200190929190505050611252565b6040518080602001828103825283818151815260200191508051906020019080838360005b838110156106c95780820151818401526020810190506106ae565b50505050905090810190601f1680156106f65780820380516001836020036101000a031916815260200191505b509250505060405180910390f35b34801561071057600080fd5b506107536004803603602081101561072757600080fd5b81019080803573ffffffffffffffffffffffffffffffffffffffff16906020019092919050505061126f565b604051808215151515815260200191505060405180910390f35b34801561077957600080fd5b506107bc6004803603602081101561079057600080fd5b81019080803573ffffffffffffffffffffffffffffffffffffffff16906020019092919050505061128c565b6040518080602001828103825283818151815260200191508051906020019080838360005b838110156107fc5780820151818401526020810190506107e1565b50505050905090810190601f1680156108295780820380516001836020036101000a031916815260200191505b509250505060405180910390f35b34801561084357600080fd5b5061084c6112a9565b005b34801561085a57600080fd5b506108636112b4565b005b34801561087157600080fd5b5061094b6004803603604081101561088857600080fd5b81019080803573ffffffffffffffffffffffffffffffffffffffff169060200190929190803590602001906401000000008111156108c557600080fd5b8201836020820111156108d757600080fd5b803590602001918460018302840111640100000000831117156108f957600080fd5b91908080601f016020809104026020016040519081016040528093929190818152602001838380828437600081840152601f19601f8201169050808301925050505050505091929192905050506112bf565b005b34801561095957600080fd5b50610a336004803603604081101561097057600080fd5b81019080803573ffffffffffffffffffffffffffffffffffffffff169060200190929190803590602001906401000000008111156109ad57600080fd5b8201836020820111156109bf57600080fd5b803590602001918460018302840111640100000000831117156109e157600080fd5b91908080601f016020809104026020016040519081016040528093929190818152602001838380828437600081840152601f19601f820116905080830192505050505050509192919290505050611370565b005b348015610a4157600080fd5b50610a4a611421565b005b348015610a5857600080fd5b50610a9b60048036036020811015610a6f57600080fd5b81019080803573ffffffffffffffffffffffffffffffffffffffff16906020019092919050505061142c565b604051808215151515815260200191505060405180910390f35b348015610ac157600080fd5b50610b9b60048036036040811015610ad857600080fd5b81019080803573ffffffffffffffffffffffffffffffffffffffff16906020019092919080359060200190640100000000811115610b1557600080fd5b820183602082011115610b2757600080fd5b80359060200191846001830284011164010000000083111715610b4957600080fd5b91908080601f016020809104026020016040519081016040528093929190818152602001838380828437600081840152601f19601f820116905080830192505050505050509192919290505050611449565b005b348015610ba957600080fd5b50610c8360048036036040811015610bc057600080fd5b81019080803573ffffffffffffffffffffffffffffffffffffffff16906020019092919080359060200190640100000000811115610bfd57600080fd5b820183602082011115610c0f57600080fd5b80359060200191846001830284011164010000000083111715610c3157600080fd5b91908080601f016020809104026020016040519081016040528093929190818152602001838380828437600081840152601f19601f8201169050808301925050505050505091929192905050506114fa565b005b348015610c9157600080fd5b50610cd460048036036020811015610ca857600080fd5b81019080803573ffffffffffffffffffffffffffffffffffffffff1690602001909291905050506115ab565b604051808215151515815260200191505060405180910390f35b348015610cfa57600080fd5b50610d036115c8565b604051808215151515815260200191505060405180910390f35b348015610d2957600080fd5b50610d326115e3565b604051808215151515815260200191505060405180910390f35b348015610d5857600080fd5b50610d9b60048036036020811015610d6f57600080fd5b81019080803573ffffffffffffffffffffffffffffffffffffffff1690602001909291905050506115fe565b6040518080602001828103825283818151815260200191508051906020019080838360005b83811015610ddb578082015181840152602081019050610dc0565b50505050905090810190601f168015610e085780820380516001836020036101000a031916815260200191505b509250505060405180910390f35b348015610e2257600080fd5b50610e6560048036036020811015610e3957600080fd5b81019080803573ffffffffffffffffffffffffffffffffffffffff16906020019092919050505061161b565b604051808215151515815260200191505060405180910390f35b348015610e8b57600080fd5b50610e94611638565b604051808215151515815260200191505060405180910390f35b348015610eba57600080fd5b50610ec3611653565b60405180871515151581526020018615151515815260200185151515158152602001841515151581526020018315151515815260200182151515158152602001965050505050505060405180910390f35b348015610f2057600080fd5b50610f296116a0565b005b348015610f3757600080fd5b50610f406116ab565b005b348015610f4e57600080fd5b50610f576116b6565b604051808215151515815260200191505060405180910390f35b348015610f7d57600080fd5b50610fc060048036036020811015610f9457600080fd5b81019080803573ffffffffffffffffffffffffffffffffffffffff1690602001909291905050506116d1565b6040518080602001828103825283818151815260200191508051906020019080838360005b83811015611000578082015181840152602081019050610fe5565b50505050905090810190601f16801561102d5780820380516001836020036101000a031916815260200191505b509250505060405180910390f35b60006110518260066116ee90919063ffffffff16565b9050919050565b611061336115ab565b15156110fb576040517f08c379a000000000000000000000000000000000000000000000000000000000815260040180806020018281038252602b8152602001807f41636369c3b36e20736f6c6f207065726d6974696461207061726120656c204481526020017f6973747269627569646f7200000000000000000000000000000000000000000081525060400191505060405180910390fd5b6111058282611782565b5050565b600061111f82600a6116ee90919063ffffffff16565b9050919050565b600061113c3360086116ee90919063ffffffff16565b905090565b61114a3361142c565b15156111e4576040517f08c379a00000000000000000000000000000000000000000000000000000000081526004018080602001828103825260298152602001807f41636369c3b36e20736f6c6f207065726d6974696461207061726120656c206381526020017f6f6e73756d69646f72000000000000000000000000000000000000000000000081525060400191505060405180910390fd5b6111ee828261184f565b5050565b606061120882600461191c90919063ffffffff16565b9050919050565b606061122582600a61191c90919063ffffffff16565b9050919050565b61123533611a00565b565b600061124d3360066116ee90919063ffffffff16565b905090565b606061126882600061191c90919063ffffffff16565b9050919050565b60006112858260086116ee90919063ffffffff16565b9050919050565b60606112a282600861191c90919063ffffffff16565b9050919050565b6112b233611b28565b565b6112bd33611c50565b565b6112c83361126f565b1515611362576040517f08c379a00000000000000000000000000000000000000000000000000000000081526004018080602001828103825260278152602001807f41636369c3b36e20736f6c6f207065726d6974696461207061726120656c205281526020017f657461696c65720000000000000000000000000000000000000000000000000081525060400191505060405180910390fd5b61136c8282611d78565b5050565b6113793361103b565b1515611413576040517f08c379a000000000000000000000000000000000000000000000000000000000815260040180806020018281038252602b8152602001807f41636369c3b36e20736f6c6f207065726d6974696461207061726120656c204481526020017f6973747269627569646f7200000000000000000000000000000000000000000081525060400191505060405180910390fd5b61141d8282611e45565b5050565b61142a33611f12565b565b60006114428260006116ee90919063ffffffff16565b9050919050565b6114523361161b565b15156114ec576040517f08c379a00000000000000000000000000000000000000000000000000000000081526004018080602001828103825260298152602001807f41636369c3b36e20736f6c6f207065726d6974696461207061726120656c204181526020017f67726963756c746f72000000000000000000000000000000000000000000000081525060400191505060405180910390fd5b6114f6828261203a565b5050565b61150333611109565b151561159d576040517f08c379a000000000000000000000000000000000000000000000000000000000815260040180806020018281038252602b8152602001807f41636369c3b36e20736f6c6f207065726d6974696461207061726120656c204d81526020017f616e75666163747572657200000000000000000000000000000000000000000081525060400191505060405180910390fd5b6115a78282612107565b5050565b60006115c18260046116ee90919063ffffffff16565b9050919050565b60006115de3360006116ee90919063ffffffff16565b905090565b60006115f93360026116ee90919063ffffffff16565b905090565b606061161482600661191c90919063ffffffff16565b9050919050565b60006116318260026116ee90919063ffffffff16565b9050919050565b600061164e3360046116ee90919063ffffffff16565b905090565b6000806000806000806116646115c8565b955061166e611126565b9450611678611638565b93506116826116b6565b925061168c611237565b91506116966115e3565b9050909192939495565b6116a9336121d4565b565b6116b4336122fc565b565b60006116cc33600a6116ee90919063ffffffff16565b905090565b60606116e782600261191c90919063ffffffff16565b9050919050565b60008073ffffffffffffffffffffffffffffffffffffffff168273ffffffffffffffffffffffffffffffffffffffff161415151561172b57600080fd5b8260000160008373ffffffffffffffffffffffffffffffffffffffff1673ffffffffffffffffffffffffffffffffffffffff16815260200190815260200160002060009054906101000a900460ff16905092915050565b611798828260046124249092919063ffffffff16565b8173ffffffffffffffffffffffffffffffffffffffff167fd5f2429a2bf80f34a91686b8f8d62bb9eae8dc57860a6d9897513d36c9696beb826040518080602001828103825283818151815260200191508051906020019080838360005b838110156118115780820151818401526020810190506117f6565b50505050905090810190601f16801561183e5780820380516001836020036101000a031916815260200191505b509250505060405180910390a25050565b611865828260006124249092919063ffffffff16565b8173ffffffffffffffffffffffffffffffffffffffff167fe53c8cba2d3adcba576da625a6ede1ffdae51f12e59ec3d94204eba247cc19ac826040518080602001828103825283818151815260200191508051906020019080838360005b838110156118de5780820151818401526020810190506118c3565b50505050905090810190601f16801561190b5780820380516001836020036101000a031916815260200191505b509250505060405180910390a25050565b60608260010160008373ffffffffffffffffffffffffffffffffffffffff1673ffffffffffffffffffffffffffffffffffffffff1681526020019081526020016000208054600181600116156101000203166002900480601f0160208091040260200160405190810160405280929190818152602001828054600181600116156101000203166002900480156119f35780601f106119c8576101008083540402835291602001916119f3565b820191906000526020600020905b8154815290600101906020018083116119d657829003601f168201915b5050505050905092915050565b611a1481600661252b90919063ffffffff16565b8073ffffffffffffffffffffffffffffffffffffffff167f5c1a8e2b7bd6e5a51f31bf534b3179f1151d6b1436f7849806aeae92842e99ca600660010160008473ffffffffffffffffffffffffffffffffffffffff1673ffffffffffffffffffffffffffffffffffffffff1681526020019081526020016000206040518080602001828103825283818154600181600116156101000203166002900481526020019150805460018160011615610100020316600290048015611b175780601f10611aec57610100808354040283529160200191611b17565b820191906000526020600020905b815481529060010190602001808311611afa57829003601f168201915b50509250505060405180910390a250565b611b3c81600061252b90919063ffffffff16565b8073ffffffffffffffffffffffffffffffffffffffff167f7a310d3ad4575acb88b164e701cc845f7465a6323e52d0b94a1998879c6dd969600060010160008473ffffffffffffffffffffffffffffffffffffffff1673ffffffffffffffffffffffffffffffffffffffff1681526020019081526020016000206040518080602001828103825283818154600181600116156101000203166002900481526020019150805460018160011615610100020316600290048015611c3f5780601f10611c1457610100808354040283529160200191611c3f565b820191906000526020600020905b815481529060010190602001808311611c2257829003601f168201915b50509250505060405180910390a250565b611c6481600461252b90919063ffffffff16565b8073ffffffffffffffffffffffffffffffffffffffff167fe1f0f63bd16b1fe6d239f7979ac1ddd832b06aaf47a1bdebceacba9b6acfca87600460010160008473ffffffffffffffffffffffffffffffffffffffff1673ffffffffffffffffffffffffffffffffffffffff1681526020019081526020016000206040518080602001828103825283818154600181600116156101000203166002900481526020019150805460018160011615610100020316600290048015611d675780601f10611d3c57610100808354040283529160200191611d67565b820191906000526020600020905b815481529060010190602001808311611d4a57829003601f168201915b50509250505060405180910390a250565b611d8e828260086124249092919063ffffffff16565b8173ffffffffffffffffffffffffffffffffffffffff167fef168356b7689c5f335452a945fd819f397250718544782d21d651705c6ea0bb826040518080602001828103825283818151815260200191508051906020019080838360005b83811015611e07578082015181840152602081019050611dec565b50505050905090810190601f168015611e345780820380516001836020036101000a031916815260200191505b509250505060405180910390a25050565b611e5b828260066124249092919063ffffffff16565b8173ffffffffffffffffffffffffffffffffffffffff167f0fe1f7e3664f42680baba928ae84ede0d48115d076ee0837a8b7e1158cf11ae3826040518080602001828103825283818151815260200191508051906020019080838360005b83811015611ed4578082015181840152602081019050611eb9565b50505050905090810190601f168015611f015780820380516001836020036101000a031916815260200191505b509250505060405180910390a25050565b611f2681600261252b90919063ffffffff16565b8073ffffffffffffffffffffffffffffffffffffffff167fb4837998ffdbd9d44a8b242cbd8fa6dce691a73411ecf4a2f9afca2b88417fde600260010160008473ffffffffffffffffffffffffffffffffffffffff1673ffffffffffffffffffffffffffffffffffffffff16815260200190815260200160002060405180806020018281038252838181546001816001161561010002031660029004815260200191508054600181600116156101000203166002900480156120295780601f10611ffe57610100808354040283529160200191612029565b820191906000526020600020905b81548152906001019060200180831161200c57829003601f168201915b50509250505060405180910390a250565b612050828260026124249092919063ffffffff16565b8173ffffffffffffffffffffffffffffffffffffffff167f2d3331c2b3444f4cc5283c8d148c8508e8ac7ce8ecf49d2896a17fd0a4e29d5b826040518080602001828103825283818151815260200191508051906020019080838360005b838110156120c95780820151818401526020810190506120ae565b50505050905090810190601f1680156120f65780820380516001836020036101000a031916815260200191505b509250505060405180910390a25050565b61211d8282600a6124249092919063ffffffff16565b8173ffffffffffffffffffffffffffffffffffffffff167f1945d2c71d577291ed89748399bbcdcedbcb3611bdd9032a98b82b00e636f388826040518080602001828103825283818151815260200191508051906020019080838360005b8381101561219657808201518184015260208101905061217b565b50505050905090810190601f1680156121c35780820380516001836020036101000a031916815260200191505b509250505060405180910390a25050565b6121e881600861252b90919063ffffffff16565b8073ffffffffffffffffffffffffffffffffffffffff167f4e3b46aad2af34c9efa6da71118861b1bc1d38449d8deb162106254948aceb85600860010160008473ffffffffffffffffffffffffffffffffffffffff1673ffffffffffffffffffffffffffffffffffffffff16815260200190815260200160002060405180806020018281038252838181546001816001161561010002031660029004815260200191508054600181600116156101000203166002900480156122eb5780601f106122c0576101008083540402835291602001916122eb565b820191906000526020600020905b8154815290600101906020018083116122ce57829003601f168201915b50509250505060405180910390a250565b61231081600a61252b90919063ffffffff16565b8073ffffffffffffffffffffffffffffffffffffffff167fc86770f28881a7280276ec532eea689e244dd34a2285d43a2b6b89244b326336600a60010160008473ffffffffffffffffffffffffffffffffffffffff1673ffffffffffffffffffffffffffffffffffffffff16815260200190815260200160002060405180806020018281038252838181546001816001161561010002031660029004815260200191508054600181600116156101000203166002900480156124135780601f106123e857610100808354040283529160200191612413565b820191906000526020600020905b8154815290600101906020018083116123f657829003601f168201915b50509250505060405180910390a250565b600073ffffffffffffffffffffffffffffffffffffffff168273ffffffffffffffffffffffffffffffffffffffff161415151561246057600080fd5b61246a83836116ee565b15151561247657600080fd5b60018360000160008473ffffffffffffffffffffffffffffffffffffffff1673ffffffffffffffffffffffffffffffffffffffff16815260200190815260200160002060006101000a81548160ff021916908315150217905550808360010160008473ffffffffffffffffffffffffffffffffffffffff1673ffffffffffffffffffffffffffffffffffffffff16815260200190815260200160002090805190602001906125259291906125da565b50505050565b600073ffffffffffffffffffffffffffffffffffffffff168173ffffffffffffffffffffffffffffffffffffffff161415151561256757600080fd5b61257182826116ee565b151561257c57600080fd5b60008260000160008373ffffffffffffffffffffffffffffffffffffffff1673ffffffffffffffffffffffffffffffffffffffff16815260200190815260200160002060006101000a81548160ff0219169083151502179055505050565b828054600181600116156101000203166002900490600052602060002090601f016020900481019282601f1061261b57805160ff1916838001178555612649565b82800160010185558215612649579182015b8281111561264857825182559160200191906001019061262d565b5b509050612656919061265a565b5090565b61267c91905b80821115612678576000816000905550600101612660565b5090565b9056fea165627a7a7230582083f92d45730900b209d851d033a5ee9fc90f0a9e0a8d87531a7da8478880a1e90029",
  "source": "pragma solidity ^0.5.0;\r\n\r\n/// Import all Roles\r\nimport \"./ConsumerRole.sol\";\r\nimport \"./DistributorRole.sol\";\r\nimport \"./FarmerRole.sol\";\r\nimport \"./ManufacturerRole.sol\";\r\nimport \"./ProcessorRole.sol\";\r\nimport \"./RetailerRole.sol\";\r\n\r\n\r\n/// @author Khalid F.Sh\r\n/// @title Role Ability Contract\r\n/// @dev contract for adopting all roles in access control\r\ncontract Rolable is ConsumerRole(\"Consumidor\"), FarmerRole(\"Agricultor\"), DistributorRole(\"Distribuidor\"), ProcessorRole(\"Procesador\"), RetailerRole(\"Retelier\"), ManufacturerRole(\"Fabricador\") {\r\n\r\n    /// Function to check all roles for the caller\r\n    /// @return array contining every role with its state as boolean\r\n    function whoAmI() public view returns(\r\n        bool consumer,\r\n        bool retailer,\r\n        bool distributor,\r\n        bool manufacturer,\r\n        bool processor,\r\n        bool farmer\r\n    )\r\n    {\r\n        consumer = amIConsumer();\r\n        retailer = amIRetailer();\r\n        distributor = amIDistributor();\r\n        manufacturer = amIManufacturer();\r\n        processor = amIProcessor();\r\n        farmer = amIFarmer();\r\n    }\r\n}\r\n",
  "sourcePath": "C:\\Users\\Usuario\\Desktop\\Ethereum-Drug-Supplychain-master\\contracts\\roles\\Rolable.sol",
  "compiler": {
    "name": "solc",
    "version": "0.5.0+commit.1d4f565a.Emscripten.clang"
  },
  "schemaVersion": "3.0.23",
  "updatedAt": "2020-07-31T15:26:57.528Z",
  "networkType": "ethereum",
  "devdoc": {
    "details": "contract for adopting all roles in access control",
    "methods": {
      "amIConsumer()": {
        "return": "boolean for caller address state in `_Consumers` Role"
      },
      "amIDistributor()": {
        "return": "boolean for caller address state in `_Distributors` Role"
      },
      "amIFarmer()": {
        "return": "boolean for caller address state in `_Farmers` Role"
      },
      "amIManufacturer()": {
        "return": "boolean for caller address state in `_Manufacturers` Role"
      },
      "amIProcessor()": {
        "return": "boolean for caller address state in `_Processors` Role"
      },
      "amIRetailer()": {
        "return": "boolean for caller address state in `_Retailers` Role"
      },
      "whoAmI()": {
        "return": "array contining every role with its state as boolean"
      }
    }
  },
  "userdoc": {
    "methods": {}
  }
}