{
  "contractName": "SupplyChain",
  "abi": [
    {
      "constant": true,
      "inputs": [
        {
          "name": "account",
          "type": "address"
        }
      ],
      "name": "isProcessor",
      "outputs": [
        {
          "name": "",
          "type": "bool"
        }
      ],
      "payable": false,
      "stateMutability": "view",
      "type": "function"
    },
    {
      "constant": false,
      "inputs": [
        {
          "name": "account",
          "type": "address"
        },
        {
          "name": "name",
          "type": "string"
        }
      ],
      "name": "addDistributor",
      "outputs": [],
      "payable": false,
      "stateMutability": "nonpayable",
      "type": "function"
    },
    {
      "constant": true,
      "inputs": [
        {
          "name": "account",
          "type": "address"
        }
      ],
      "name": "isManufacturer",
      "outputs": [
        {
          "name": "",
          "type": "bool"
        }
      ],
      "payable": false,
      "stateMutability": "view",
      "type": "function"
    },
    {
      "constant": true,
      "inputs": [],
      "name": "amIRetailer",
      "outputs": [
        {
          "name": "",
          "type": "bool"
        }
      ],
      "payable": false,
      "stateMutability": "view",
      "type": "function"
    },
    {
      "constant": false,
      "inputs": [
        {
          "name": "account",
          "type": "address"
        },
        {
          "name": "name",
          "type": "string"
        }
      ],
      "name": "addConsumer",
      "outputs": [],
      "payable": false,
      "stateMutability": "nonpayable",
      "type": "function"
    },
    {
      "constant": true,
      "inputs": [
        {
          "name": "account",
          "type": "address"
        }
      ],
      "name": "getNameDistributor",
      "outputs": [
        {
          "name": "",
          "type": "string"
        }
      ],
      "payable": false,
      "stateMutability": "view",
      "type": "function"
    },
    {
      "constant": true,
      "inputs": [
        {
          "name": "account",
          "type": "address"
        }
      ],
      "name": "getNameManufacturer",
      "outputs": [
        {
          "name": "",
          "type": "string"
        }
      ],
      "payable": false,
      "stateMutability": "view",
      "type": "function"
    },
    {
      "constant": false,
      "inputs": [],
      "name": "renounceProcessor",
      "outputs": [],
      "payable": false,
      "stateMutability": "nonpayable",
      "type": "function"
    },
    {
      "constant": true,
      "inputs": [],
      "name": "amIProcessor",
      "outputs": [
        {
          "name": "",
          "type": "bool"
        }
      ],
      "payable": false,
      "stateMutability": "view",
      "type": "function"
    },
    {
      "constant": true,
      "inputs": [
        {
          "name": "account",
          "type": "address"
        }
      ],
      "name": "getNameConsumer",
      "outputs": [
        {
          "name": "",
          "type": "string"
        }
      ],
      "payable": false,
      "stateMutability": "view",
      "type": "function"
    },
    {
      "constant": true,
      "inputs": [
        {
          "name": "account",
          "type": "address"
        }
      ],
      "name": "isRetailer",
      "outputs": [
        {
          "name": "",
          "type": "bool"
        }
      ],
      "payable": false,
      "stateMutability": "view",
      "type": "function"
    },
    {
      "constant": true,
      "inputs": [
        {
          "name": "account",
          "type": "address"
        }
      ],
      "name": "getNameRetailer",
      "outputs": [
        {
          "name": "",
          "type": "string"
        }
      ],
      "payable": false,
      "stateMutability": "view",
      "type": "function"
    },
    {
      "constant": false,
      "inputs": [],
      "name": "renounceConsumer",
      "outputs": [],
      "payable": false,
      "stateMutability": "nonpayable",
      "type": "function"
    },
    {
      "constant": false,
      "inputs": [],
      "name": "renounceDistributor",
      "outputs": [],
      "payable": false,
      "stateMutability": "nonpayable",
      "type": "function"
    },
    {
      "constant": false,
      "inputs": [],
      "name": "renounceOwnership",
      "outputs": [],
      "payable": false,
      "stateMutability": "nonpayable",
      "type": "function"
    },
    {
      "constant": false,
      "inputs": [
        {
          "name": "account",
          "type": "address"
        },
        {
          "name": "name",
          "type": "string"
        }
      ],
      "name": "addRetailer",
      "outputs": [],
      "payable": false,
      "stateMutability": "nonpayable",
      "type": "function"
    },
    {
      "constant": false,
      "inputs": [
        {
          "name": "account",
          "type": "address"
        },
        {
          "name": "name",
          "type": "string"
        }
      ],
      "name": "addProcessor",
      "outputs": [],
      "payable": false,
      "stateMutability": "nonpayable",
      "type": "function"
    },
    {
      "constant": false,
      "inputs": [],
      "name": "renounceFarmer",
      "outputs": [],
      "payable": false,
      "stateMutability": "nonpayable",
      "type": "function"
    },
    {
      "constant": true,
      "inputs": [
        {
          "name": "account",
          "type": "address"
        }
      ],
      "name": "isConsumer",
      "outputs": [
        {
          "name": "",
          "type": "bool"
        }
      ],
      "payable": false,
      "stateMutability": "view",
      "type": "function"
    },
    {
      "constant": false,
      "inputs": [
        {
          "name": "account",
          "type": "address"
        },
        {
          "name": "name",
          "type": "string"
        }
      ],
      "name": "addFarmer",
      "outputs": [],
      "payable": false,
      "stateMutability": "nonpayable",
      "type": "function"
    },
    {
      "constant": false,
      "inputs": [
        {
          "name": "account",
          "type": "address"
        },
        {
          "name": "name",
          "type": "string"
        }
      ],
      "name": "addManufacturer",
      "outputs": [],
      "payable": false,
      "stateMutability": "nonpayable",
      "type": "function"
    },
    {
      "constant": true,
      "inputs": [
        {
          "name": "account",
          "type": "address"
        }
      ],
      "name": "isDistributor",
      "outputs": [
        {
          "name": "",
          "type": "bool"
        }
      ],
      "payable": false,
      "stateMutability": "view",
      "type": "function"
    },
    {
      "constant": true,
      "inputs": [],
      "name": "isOwner",
      "outputs": [
        {
          "name": "",
          "type": "bool"
        }
      ],
      "payable": false,
      "stateMutability": "view",
      "type": "function"
    },
    {
      "constant": true,
      "inputs": [],
      "name": "amIConsumer",
      "outputs": [
        {
          "name": "",
          "type": "bool"
        }
      ],
      "payable": false,
      "stateMutability": "view",
      "type": "function"
    },
    {
      "constant": true,
      "inputs": [],
      "name": "amIFarmer",
      "outputs": [
        {
          "name": "",
          "type": "bool"
        }
      ],
      "payable": false,
      "stateMutability": "view",
      "type": "function"
    },
    {
      "constant": true,
      "inputs": [
        {
          "name": "account",
          "type": "address"
        }
      ],
      "name": "getNameProcessor",
      "outputs": [
        {
          "name": "",
          "type": "string"
        }
      ],
      "payable": false,
      "stateMutability": "view",
      "type": "function"
    },
    {
      "constant": true,
      "inputs": [
        {
          "name": "account",
          "type": "address"
        }
      ],
      "name": "isFarmer",
      "outputs": [
        {
          "name": "",
          "type": "bool"
        }
      ],
      "payable": false,
      "stateMutability": "view",
      "type": "function"
    },
    {
      "constant": true,
      "inputs": [],
      "name": "amIDistributor",
      "outputs": [
        {
          "name": "",
          "type": "bool"
        }
      ],
      "payable": false,
      "stateMutability": "view",
      "type": "function"
    },
    {
      "constant": true,
      "inputs": [],
      "name": "whoAmI",
      "outputs": [
        {
          "name": "consumer",
          "type": "bool"
        },
        {
          "name": "retailer",
          "type": "bool"
        },
        {
          "name": "distributor",
          "type": "bool"
        },
        {
          "name": "manufacturer",
          "type": "bool"
        },
        {
          "name": "processor",
          "type": "bool"
        },
        {
          "name": "farmer",
          "type": "bool"
        }
      ],
      "payable": false,
      "stateMutability": "view",
      "type": "function"
    },
    {
      "constant": false,
      "inputs": [],
      "name": "renounceRetailer",
      "outputs": [],
      "payable": false,
      "stateMutability": "nonpayable",
      "type": "function"
    },
    {
      "constant": false,
      "inputs": [],
      "name": "renounceManufacturer",
      "outputs": [],
      "payable": false,
      "stateMutability": "nonpayable",
      "type": "function"
    },
    {
      "constant": true,
      "inputs": [],
      "name": "ownerLookup",
      "outputs": [
        {
          "name": "",
          "type": "address"
        }
      ],
      "payable": false,
      "stateMutability": "view",
      "type": "function"
    },
    {
      "constant": true,
      "inputs": [],
      "name": "amIManufacturer",
      "outputs": [
        {
          "name": "",
          "type": "bool"
        }
      ],
      "payable": false,
      "stateMutability": "view",
      "type": "function"
    },
    {
      "constant": false,
      "inputs": [
        {
          "name": "newOwner",
          "type": "address"
        }
      ],
      "name": "transferOwnership",
      "outputs": [],
      "payable": false,
      "stateMutability": "nonpayable",
      "type": "function"
    },
    {
      "constant": true,
      "inputs": [
        {
          "name": "account",
          "type": "address"
        }
      ],
      "name": "getNameFarmer",
      "outputs": [
        {
          "name": "",
          "type": "string"
        }
      ],
      "payable": false,
      "stateMutability": "view",
      "type": "function"
    },
    {
      "inputs": [],
      "payable": true,
      "stateMutability": "payable",
      "type": "constructor"
    },
    {
      "anonymous": false,
      "inputs": [
        {
          "indexed": false,
          "name": "upc",
          "type": "uint256"
        }
      ],
      "name": "Planted",
      "type": "event"
    },
    {
      "anonymous": false,
      "inputs": [
        {
          "indexed": false,
          "name": "upc",
          "type": "uint256"
        }
      ],
      "name": "Matured",
      "type": "event"
    },
    {
      "anonymous": false,
      "inputs": [
        {
          "indexed": false,
          "name": "upc",
          "type": "uint256"
        }
      ],
      "name": "Harvested",
      "type": "event"
    },
    {
      "anonymous": false,
      "inputs": [
        {
          "indexed": false,
          "name": "upc",
          "type": "uint256"
        }
      ],
      "name": "Processed",
      "type": "event"
    },
    {
      "anonymous": false,
      "inputs": [
        {
          "indexed": false,
          "name": "upc",
          "type": "uint256"
        }
      ],
      "name": "Packed",
      "type": "event"
    },
    {
      "anonymous": false,
      "inputs": [
        {
          "indexed": false,
          "name": "upc",
          "type": "uint256"
        }
      ],
      "name": "ForSale",
      "type": "event"
    },
    {
      "anonymous": false,
      "inputs": [
        {
          "indexed": false,
          "name": "upc",
          "type": "uint256"
        }
      ],
      "name": "Sold",
      "type": "event"
    },
    {
      "anonymous": false,
      "inputs": [
        {
          "indexed": false,
          "name": "upc",
          "type": "uint256"
        }
      ],
      "name": "Shipped",
      "type": "event"
    },
    {
      "anonymous": false,
      "inputs": [
        {
          "indexed": false,
          "name": "upc",
          "type": "uint256"
        }
      ],
      "name": "Received",
      "type": "event"
    },
    {
      "anonymous": false,
      "inputs": [
        {
          "indexed": false,
          "name": "upc",
          "type": "uint256"
        }
      ],
      "name": "Purchased",
      "type": "event"
    },
    {
      "anonymous": false,
      "inputs": [
        {
          "indexed": true,
          "name": "account",
          "type": "address"
        },
        {
          "indexed": false,
          "name": "name",
          "type": "string"
        }
      ],
      "name": "ManufacturerAdded",
      "type": "event"
    },
    {
      "anonymous": false,
      "inputs": [
        {
          "indexed": true,
          "name": "account",
          "type": "address"
        },
        {
          "indexed": false,
          "name": "name",
          "type": "string"
        }
      ],
      "name": "ManufacturerRemoved",
      "type": "event"
    },
    {
      "anonymous": false,
      "inputs": [
        {
          "indexed": true,
          "name": "account",
          "type": "address"
        },
        {
          "indexed": false,
          "name": "name",
          "type": "string"
        }
      ],
      "name": "RetailerAdded",
      "type": "event"
    },
    {
      "anonymous": false,
      "inputs": [
        {
          "indexed": true,
          "name": "account",
          "type": "address"
        },
        {
          "indexed": false,
          "name": "name",
          "type": "string"
        }
      ],
      "name": "RetailerRemoved",
      "type": "event"
    },
    {
      "anonymous": false,
      "inputs": [
        {
          "indexed": true,
          "name": "account",
          "type": "address"
        },
        {
          "indexed": false,
          "name": "name",
          "type": "string"
        }
      ],
      "name": "ProcessorAdded",
      "type": "event"
    },
    {
      "anonymous": false,
      "inputs": [
        {
          "indexed": true,
          "name": "account",
          "type": "address"
        },
        {
          "indexed": false,
          "name": "name",
          "type": "string"
        }
      ],
      "name": "ProcessorRemoved",
      "type": "event"
    },
    {
      "anonymous": false,
      "inputs": [
        {
          "indexed": true,
          "name": "account",
          "type": "address"
        },
        {
          "indexed": false,
          "name": "name",
          "type": "string"
        }
      ],
      "name": "DistributorAdded",
      "type": "event"
    },
    {
      "anonymous": false,
      "inputs": [
        {
          "indexed": true,
          "name": "account",
          "type": "address"
        },
        {
          "indexed": false,
          "name": "name",
          "type": "string"
        }
      ],
      "name": "DistributorRemoved",
      "type": "event"
    },
    {
      "anonymous": false,
      "inputs": [
        {
          "indexed": true,
          "name": "account",
          "type": "address"
        },
        {
          "indexed": false,
          "name": "name",
          "type": "string"
        }
      ],
      "name": "FarmerAdded",
      "type": "event"
    },
    {
      "anonymous": false,
      "inputs": [
        {
          "indexed": true,
          "name": "account",
          "type": "address"
        },
        {
          "indexed": false,
          "name": "name",
          "type": "string"
        }
      ],
      "name": "FarmerRemoved",
      "type": "event"
    },
    {
      "anonymous": false,
      "inputs": [
        {
          "indexed": true,
          "name": "account",
          "type": "address"
        },
        {
          "indexed": false,
          "name": "name",
          "type": "string"
        }
      ],
      "name": "ConsumerAdded",
      "type": "event"
    },
    {
      "anonymous": false,
      "inputs": [
        {
          "indexed": true,
          "name": "account",
          "type": "address"
        },
        {
          "indexed": false,
          "name": "name",
          "type": "string"
        }
      ],
      "name": "ConsumerRemoved",
      "type": "event"
    },
    {
      "anonymous": false,
      "inputs": [
        {
          "indexed": true,
          "name": "oldOwner",
          "type": "address"
        },
        {
          "indexed": true,
          "name": "newOwner",
          "type": "address"
        }
      ],
      "name": "TransferOwnership",
      "type": "event"
    },
    {
      "constant": false,
      "inputs": [],
      "name": "kill",
      "outputs": [],
      "payable": false,
      "stateMutability": "nonpayable",
      "type": "function"
    },
    {
      "constant": false,
      "inputs": [
        {
          "name": "_upc",
          "type": "uint256"
        },
        {
          "name": "_originFarmerID",
          "type": "address"
        },
        {
          "name": "_originFarmName",
          "type": "string"
        },
        {
          "name": "_originFarmInformation",
          "type": "string"
        },
        {
          "name": "_originFarmLatitude",
          "type": "string"
        },
        {
          "name": "_originFarmLongitude",
          "type": "string"
        },
        {
          "name": "_productNotes",
          "type": "string"
        }
      ],
      "name": "plantItem",
      "outputs": [],
      "payable": false,
      "stateMutability": "nonpayable",
      "type": "function"
    },
    {
      "constant": false,
      "inputs": [
        {
          "name": "_upc",
          "type": "uint256"
        }
      ],
      "name": "growItem",
      "outputs": [],
      "payable": false,
      "stateMutability": "nonpayable",
      "type": "function"
    },
    {
      "constant": false,
      "inputs": [
        {
          "name": "_upc",
          "type": "uint256"
        }
      ],
      "name": "harvestItem",
      "outputs": [],
      "payable": false,
      "stateMutability": "nonpayable",
      "type": "function"
    },
    {
      "constant": false,
      "inputs": [
        {
          "name": "_upc",
          "type": "uint256"
        }
      ],
      "name": "processItem",
      "outputs": [],
      "payable": false,
      "stateMutability": "nonpayable",
      "type": "function"
    },
    {
      "constant": false,
      "inputs": [
        {
          "name": "_upc",
          "type": "uint256"
        }
      ],
      "name": "packItem",
      "outputs": [],
      "payable": false,
      "stateMutability": "nonpayable",
      "type": "function"
    },
    {
      "constant": false,
      "inputs": [
        {
          "name": "_upc",
          "type": "uint256"
        },
        {
          "name": "_price",
          "type": "uint256"
        }
      ],
      "name": "sellItem",
      "outputs": [],
      "payable": false,
      "stateMutability": "nonpayable",
      "type": "function"
    },
    {
      "constant": false,
      "inputs": [
        {
          "name": "_upc",
          "type": "uint256"
        }
      ],
      "name": "buyItem",
      "outputs": [],
      "payable": true,
      "stateMutability": "payable",
      "type": "function"
    },
    {
      "constant": false,
      "inputs": [
        {
          "name": "_upc",
          "type": "uint256"
        }
      ],
      "name": "shipItem",
      "outputs": [],
      "payable": false,
      "stateMutability": "nonpayable",
      "type": "function"
    },
    {
      "constant": false,
      "inputs": [
        {
          "name": "_upc",
          "type": "uint256"
        }
      ],
      "name": "receiveItem",
      "outputs": [],
      "payable": false,
      "stateMutability": "nonpayable",
      "type": "function"
    },
    {
      "constant": false,
      "inputs": [
        {
          "name": "_upc",
          "type": "uint256"
        }
      ],
      "name": "purchaseItem",
      "outputs": [],
      "payable": false,
      "stateMutability": "nonpayable",
      "type": "function"
    },
    {
      "constant": true,
      "inputs": [
        {
          "name": "_upc",
          "type": "uint256"
        }
      ],
      "name": "fetchItemBufferOne",
      "outputs": [
        {
          "name": "itemSKU",
          "type": "uint256"
        },
        {
          "name": "itemUPC",
          "type": "uint256"
        },
        {
          "name": "ownerID",
          "type": "address"
        },
        {
          "name": "originFarmerID",
          "type": "address"
        },
        {
          "name": "originFarmName",
          "type": "string"
        },
        {
          "name": "originFarmInformation",
          "type": "string"
        },
        {
          "name": "originFarmLatitude",
          "type": "string"
        },
        {
          "name": "originFarmLongitude",
          "type": "string"
        }
      ],
      "payable": false,
      "stateMutability": "view",
      "type": "function"
    },
    {
      "constant": true,
      "inputs": [
        {
          "name": "_upc",
          "type": "uint256"
        }
      ],
      "name": "fetchItemBufferTwo",
      "outputs": [
        {
          "name": "itemSKU",
          "type": "uint256"
        },
        {
          "name": "itemUPC",
          "type": "uint256"
        },
        {
          "name": "productID",
          "type": "uint256"
        },
        {
          "name": "productNotes",
          "type": "string"
        },
        {
          "name": "productPrice",
          "type": "uint256"
        },
        {
          "name": "itemState",
          "type": "uint256"
        },
        {
          "name": "distributorID",
          "type": "address"
        },
        {
          "name": "retailerID",
          "type": "address"
        },
        {
          "name": "consumerID",
          "type": "address"
        }
      ],
      "payable": false,
      "stateMutability": "view",
      "type": "function"
    }
  ],
  "bytecode": "0x60806040526040805190810160405280600a81526020017f46616272696361646f72000000000000000000000000000000000000000000008152506040805190810160405280600881526020017f526574656c6965720000000000000000000000000000000000000000000000008152506040805190810160405280600a81526020017f50726f63657361646f72000000000000000000000000000000000000000000008152506040805190810160405280600c81526020017f446973747269627569646f7200000000000000000000000000000000000000008152506040805190810160405280600a81526020017f4167726963756c746f72000000000000000000000000000000000000000000008152506040805190810160405280600a81526020017f436f6e73756d69646f7200000000000000000000000000000000000000000000815250336000806101000a81548173ffffffffffffffffffffffffffffffffffffffff021916908373ffffffffffffffffffffffffffffffffffffffff1602179055506000809054906101000a900473ffffffffffffffffffffffffffffffffffffffff1673ffffffffffffffffffffffffffffffffffffffff16600073ffffffffffffffffffffffffffffffffffffffff167f5c486528ec3e3f0ea91181cff8116f02bfa350e03b8b6f12e00765adbb5af85c60405160405180910390a36200021f338262000303640100000000026401000000009004565b506200023b3382620003e3640100000000026401000000009004565b50620002573382620004c3640100000000026401000000009004565b50620002733382620005a3640100000000026401000000009004565b506200028f338262000683640100000000026401000000009004565b50620002ab338262000763640100000000026401000000009004565b5033600d60006101000a81548173ffffffffffffffffffffffffffffffffffffffff021916908373ffffffffffffffffffffffffffffffffffffffff1602179055506001600f819055506001600e8190555062000aa3565b620003298282600162000843640100000000026200532d17909291906401000000009004565b8173ffffffffffffffffffffffffffffffffffffffff167fe53c8cba2d3adcba576da625a6ede1ffdae51f12e59ec3d94204eba247cc19ac826040518080602001828103825283818151815260200191508051906020019080838360005b83811015620003a457808201518184015260208101905062000387565b50505050905090810190601f168015620003d25780820380516001836020036101000a031916815260200191505b509250505060405180910390a25050565b620004098282600362000843640100000000026200532d17909291906401000000009004565b8173ffffffffffffffffffffffffffffffffffffffff167f2d3331c2b3444f4cc5283c8d148c8508e8ac7ce8ecf49d2896a17fd0a4e29d5b826040518080602001828103825283818151815260200191508051906020019080838360005b838110156200048457808201518184015260208101905062000467565b50505050905090810190601f168015620004b25780820380516001836020036101000a031916815260200191505b509250505060405180910390a25050565b620004e98282600562000843640100000000026200532d17909291906401000000009004565b8173ffffffffffffffffffffffffffffffffffffffff167fd5f2429a2bf80f34a91686b8f8d62bb9eae8dc57860a6d9897513d36c9696beb826040518080602001828103825283818151815260200191508051906020019080838360005b838110156200056457808201518184015260208101905062000547565b50505050905090810190601f168015620005925780820380516001836020036101000a031916815260200191505b509250505060405180910390a25050565b620005c98282600762000843640100000000026200532d17909291906401000000009004565b8173ffffffffffffffffffffffffffffffffffffffff167f0fe1f7e3664f42680baba928ae84ede0d48115d076ee0837a8b7e1158cf11ae3826040518080602001828103825283818151815260200191508051906020019080838360005b838110156200064457808201518184015260208101905062000627565b50505050905090810190601f168015620006725780820380516001836020036101000a031916815260200191505b509250505060405180910390a25050565b620006a98282600962000843640100000000026200532d17909291906401000000009004565b8173ffffffffffffffffffffffffffffffffffffffff167fef168356b7689c5f335452a945fd819f397250718544782d21d651705c6ea0bb826040518080602001828103825283818151815260200191508051906020019080838360005b838110156200072457808201518184015260208101905062000707565b50505050905090810190601f168015620007525780820380516001836020036101000a031916815260200191505b509250505060405180910390a25050565b620007898282600b62000843640100000000026200532d17909291906401000000009004565b8173ffffffffffffffffffffffffffffffffffffffff167f1945d2c71d577291ed89748399bbcdcedbcb3611bdd9032a98b82b00e636f388826040518080602001828103825283818151815260200191508051906020019080838360005b8381101562000804578082015181840152602081019050620007e7565b50505050905090810190601f168015620008325780820380516001836020036101000a031916815260200191505b509250505060405180910390a25050565b600073ffffffffffffffffffffffffffffffffffffffff168273ffffffffffffffffffffffffffffffffffffffff16141515156200088057600080fd5b6200089b83836200095f640100000000026401000000009004565b151515620008a857600080fd5b60018360000160008473ffffffffffffffffffffffffffffffffffffffff1673ffffffffffffffffffffffffffffffffffffffff16815260200190815260200160002060006101000a81548160ff021916908315150217905550808360010160008473ffffffffffffffffffffffffffffffffffffffff1673ffffffffffffffffffffffffffffffffffffffff168152602001908152602001600020908051906020019062000959929190620009f4565b50505050565b60008073ffffffffffffffffffffffffffffffffffffffff168273ffffffffffffffffffffffffffffffffffffffff16141515156200099d57600080fd5b8260000160008373ffffffffffffffffffffffffffffffffffffffff1673ffffffffffffffffffffffffffffffffffffffff16815260200190815260200160002060009054906101000a900460ff16905092915050565b828054600181600116156101000203166002900490600052602060002090601f016020900481019282601f1062000a3757805160ff191683800117855562000a68565b8280016001018555821562000a68579182015b8281111562000a6757825182559160200191906001019062000a4a565b5b50905062000a77919062000a7b565b5090565b62000aa091905b8082111562000a9c57600081600090555060010162000a82565b5090565b90565b6156348062000ab36000396000f3fe608060405260043610610245576000357c0100000000000000000000000000000000000000000000000000000000900463ffffffff1680620919881461024a5780631214d2fd146102b357806314ef81b21461039b57806317d4a491146103d65780631d375b0c1461043f578063227cca091461046e5780632d92356114610556578063333d6a431461059b57806337d76c1b146105d657806341c0e1b5146106a057806346cf6462146106b757806347fd09871461078157806347febdb71461079857806349dae766146107c75780634db5d4f8146108025780635da09b88146108cc5780635df80ce31461093557806361e6982d146109ff578063644241db14610a1657806366225ff914610a2d578063715018a614610b9d57806375c6da2314610bb457806377c4591314610c9c57806378e5099b14610f0857806380fc0ce414610ff0578063834ff7391461100757806389671bf0146110705780638a8e0a2e146111585780638f0c86fa146112405780638f32d59b146112a95780639af687a6146112d8578063a26be99914611307578063a35628c614611342578063ae7c8abf14611371578063b94290691461143b578063cf196671146114a4578063d38ea5bf146114d3578063da91254c1461150e578063db0e6a2f14611574578063de07f34e1461158b578063e02e64ea146115a2578063e1d6f86f146115f9578063e7fb74c714611628578063ea0bdcb014611656578063f2fde38b146119a4578063f30fc480146119f5578063f61c899a14611a30578063f7b5e0d214611a6b575b600080fd5b34801561025657600080fd5b506102996004803603602081101561026d57600080fd5b81019080803573ffffffffffffffffffffffffffffffffffffffff169060200190929190505050611b35565b604051808215151515815260200191505060405180910390f35b3480156102bf57600080fd5b50610399600480360360408110156102d657600080fd5b81019080803573ffffffffffffffffffffffffffffffffffffffff1690602001909291908035906020019064010000000081111561031357600080fd5b82018360208201111561032557600080fd5b8035906020019184600183028401116401000000008311171561034757600080fd5b91908080601f016020809104026020016040519081016040528093929190818152602001838380828437600081840152601f19601f820116905080830192505050505050509192919290505050611b52565b005b3480156103a757600080fd5b506103d4600480360360208110156103be57600080fd5b8101908080359060200190929190505050611c03565b005b3480156103e257600080fd5b50610425600480360360208110156103f957600080fd5b81019080803573ffffffffffffffffffffffffffffffffffffffff169060200190929190505050611e3d565b604051808215151515815260200191505060405180910390f35b34801561044b57600080fd5b50610454611e5a565b604051808215151515815260200191505060405180910390f35b34801561047a57600080fd5b506105546004803603604081101561049157600080fd5b81019080803573ffffffffffffffffffffffffffffffffffffffff169060200190929190803590602001906401000000008111156104ce57600080fd5b8201836020820111156104e057600080fd5b8035906020019184600183028401116401000000008311171561050257600080fd5b91908080601f016020809104026020016040519081016040528093929190818152602001838380828437600081840152601f19601f820116905080830192505050505050509192919290505050611e75565b005b34801561056257600080fd5b506105996004803603604081101561057957600080fd5b810190808035906020019092919080359060200190929190505050611f26565b005b3480156105a757600080fd5b506105d4600480360360208110156105be57600080fd5b810190808035906020019092919050505061217c565b005b3480156105e257600080fd5b50610625600480360360208110156105f957600080fd5b81019080803573ffffffffffffffffffffffffffffffffffffffff1690602001909291905050506123b6565b6040518080602001828103825283818151815260200191508051906020019080838360005b8381101561066557808201518184015260208101905061064a565b50505050905090810190601f1680156106925780820380516001836020036101000a031916815260200191505b509250505060405180910390f35b3480156106ac57600080fd5b506106b56123d3565b005b3480156106c357600080fd5b50610706600480360360208110156106da57600080fd5b81019080803573ffffffffffffffffffffffffffffffffffffffff1690602001909291905050506124c2565b6040518080602001828103825283818151815260200191508051906020019080838360005b8381101561074657808201518184015260208101905061072b565b50505050905090810190601f1680156107735780820380516001836020036101000a031916815260200191505b509250505060405180910390f35b34801561078d57600080fd5b506107966124df565b005b3480156107a457600080fd5b506107ad6124ea565b604051808215151515815260200191505060405180910390f35b3480156107d357600080fd5b50610800600480360360208110156107ea57600080fd5b8101908080359060200190929190505050612505565b005b34801561080e57600080fd5b506108516004803603602081101561082557600080fd5b81019080803573ffffffffffffffffffffffffffffffffffffffff16906020019092919050505061273f565b6040518080602001828103825283818151815260200191508051906020019080838360005b83811015610891578082015181840152602081019050610876565b50505050905090810190601f1680156108be5780820380516001836020036101000a031916815260200191505b509250505060405180910390f35b3480156108d857600080fd5b5061091b600480360360208110156108ef57600080fd5b81019080803573ffffffffffffffffffffffffffffffffffffffff16906020019092919050505061275c565b604051808215151515815260200191505060405180910390f35b34801561094157600080fd5b506109846004803603602081101561095857600080fd5b81019080803573ffffffffffffffffffffffffffffffffffffffff169060200190929190505050612779565b6040518080602001828103825283818151815260200191508051906020019080838360005b838110156109c45780820151818401526020810190506109a9565b50505050905090810190601f1680156109f15780820380516001836020036101000a031916815260200191505b509250505060405180910390f35b348015610a0b57600080fd5b50610a14612796565b005b348015610a2257600080fd5b50610a2b6127a1565b005b348015610a3957600080fd5b50610a6660048036036020811015610a5057600080fd5b81019080803590602001909291905050506127ac565b604051808a8152602001898152602001888152602001806020018781526020018681526020018573ffffffffffffffffffffffffffffffffffffffff1673ffffffffffffffffffffffffffffffffffffffff1681526020018473ffffffffffffffffffffffffffffffffffffffff1673ffffffffffffffffffffffffffffffffffffffff1681526020018373ffffffffffffffffffffffffffffffffffffffff1673ffffffffffffffffffffffffffffffffffffffff168152602001828103825288818151815260200191508051906020019080838360005b83811015610b5a578082015181840152602081019050610b3f565b50505050905090810190601f168015610b875780820380516001836020036101000a031916815260200191505b509a505050505050505050505060405180910390f35b348015610ba957600080fd5b50610bb26129d4565b005b348015610bc057600080fd5b50610c9a60048036036040811015610bd757600080fd5b81019080803573ffffffffffffffffffffffffffffffffffffffff16906020019092919080359060200190640100000000811115610c1457600080fd5b820183602082011115610c2657600080fd5b80359060200191846001830284011164010000000083111715610c4857600080fd5b91908080601f016020809104026020016040519081016040528093929190818152602001838380828437600081840152601f19601f820116905080830192505050505050509192919290505050612aef565b005b348015610ca857600080fd5b50610cd560048036036020811015610cbf57600080fd5b8101908080359060200190929190505050612ba0565b604051808981526020018881526020018773ffffffffffffffffffffffffffffffffffffffff1673ffffffffffffffffffffffffffffffffffffffff1681526020018673ffffffffffffffffffffffffffffffffffffffff1673ffffffffffffffffffffffffffffffffffffffff16815260200180602001806020018060200180602001858103855289818151815260200191508051906020019080838360005b83811015610d91578082015181840152602081019050610d76565b50505050905090810190601f168015610dbe5780820380516001836020036101000a031916815260200191505b50858103845288818151815260200191508051906020019080838360005b83811015610df7578082015181840152602081019050610ddc565b50505050905090810190601f168015610e245780820380516001836020036101000a031916815260200191505b50858103835287818151815260200191508051906020019080838360005b83811015610e5d578082015181840152602081019050610e42565b50505050905090810190601f168015610e8a5780820380516001836020036101000a031916815260200191505b50858103825286818151815260200191508051906020019080838360005b83811015610ec3578082015181840152602081019050610ea8565b50505050905090810190601f168015610ef05780820380516001836020036101000a031916815260200191505b509c5050505050505050505050505060405180910390f35b348015610f1457600080fd5b50610fee60048036036040811015610f2b57600080fd5b81019080803573ffffffffffffffffffffffffffffffffffffffff16906020019092919080359060200190640100000000811115610f6857600080fd5b820183602082011115610f7a57600080fd5b80359060200191846001830284011164010000000083111715610f9c57600080fd5b91908080601f016020809104026020016040519081016040528093929190818152602001838380828437600081840152601f19601f820116905080830192505050505050509192919290505050612f37565b005b348015610ffc57600080fd5b50611005612fe8565b005b34801561101357600080fd5b506110566004803603602081101561102a57600080fd5b81019080803573ffffffffffffffffffffffffffffffffffffffff169060200190929190505050612ff3565b604051808215151515815260200191505060405180910390f35b34801561107c57600080fd5b506111566004803603604081101561109357600080fd5b81019080803573ffffffffffffffffffffffffffffffffffffffff169060200190929190803590602001906401000000008111156110d057600080fd5b8201836020820111156110e257600080fd5b8035906020019184600183028401116401000000008311171561110457600080fd5b91908080601f016020809104026020016040519081016040528093929190818152602001838380828437600081840152601f19601f820116905080830192505050505050509192919290505050613010565b005b34801561116457600080fd5b5061123e6004803603604081101561117b57600080fd5b81019080803573ffffffffffffffffffffffffffffffffffffffff169060200190929190803590602001906401000000008111156111b857600080fd5b8201836020820111156111ca57600080fd5b803590602001918460018302840111640100000000831117156111ec57600080fd5b91908080601f016020809104026020016040519081016040528093929190818152602001838380828437600081840152601f19601f8201169050808301925050505050505091929192905050506130c1565b005b34801561124c57600080fd5b5061128f6004803603602081101561126357600080fd5b81019080803573ffffffffffffffffffffffffffffffffffffffff169060200190929190505050613172565b604051808215151515815260200191505060405180910390f35b3480156112b557600080fd5b506112be61318f565b604051808215151515815260200191505060405180910390f35b3480156112e457600080fd5b506112ed6131e6565b604051808215151515815260200191505060405180910390f35b34801561131357600080fd5b506113406004803603602081101561132a57600080fd5b8101908080359060200190929190505050613201565b005b34801561134e57600080fd5b50611357613473565b604051808215151515815260200191505060405180910390f35b34801561137d57600080fd5b506113c06004803603602081101561139457600080fd5b81019080803573ffffffffffffffffffffffffffffffffffffffff16906020019092919050505061348e565b6040518080602001828103825283818151815260200191508051906020019080838360005b838110156114005780820151818401526020810190506113e5565b50505050905090810190601f16801561142d5780820380516001836020036101000a031916815260200191505b509250505060405180910390f35b34801561144757600080fd5b5061148a6004803603602081101561145e57600080fd5b81019080803573ffffffffffffffffffffffffffffffffffffffff1690602001909291905050506134ab565b604051808215151515815260200191505060405180910390f35b3480156114b057600080fd5b506114b96134c8565b604051808215151515815260200191505060405180910390f35b3480156114df57600080fd5b5061150c600480360360208110156114f657600080fd5b81019080803590602001909291905050506134e3565b005b34801561151a57600080fd5b50611523613755565b60405180871515151581526020018615151515815260200185151515158152602001841515151581526020018315151515815260200182151515158152602001965050505050505060405180910390f35b34801561158057600080fd5b506115896137a2565b005b34801561159757600080fd5b506115a06137ad565b005b3480156115ae57600080fd5b506115b76137b8565b604051808273ffffffffffffffffffffffffffffffffffffffff1673ffffffffffffffffffffffffffffffffffffffff16815260200191505060405180910390f35b34801561160557600080fd5b5061160e6137e1565b604051808215151515815260200191505060405180910390f35b6116546004803603602081101561163e57600080fd5b81019080803590602001909291905050506137fc565b005b34801561166257600080fd5b506119a2600480360360e081101561167957600080fd5b8101908080359060200190929190803573ffffffffffffffffffffffffffffffffffffffff169060200190929190803590602001906401000000008111156116c057600080fd5b8201836020820111156116d257600080fd5b803590602001918460018302840111640100000000831117156116f457600080fd5b91908080601f016020809104026020016040519081016040528093929190818152602001838380828437600081840152601f19601f8201169050808301925050505050505091929192908035906020019064010000000081111561175757600080fd5b82018360208201111561176957600080fd5b8035906020019184600183028401116401000000008311171561178b57600080fd5b91908080601f016020809104026020016040519081016040528093929190818152602001838380828437600081840152601f19601f820116905080830192505050505050509192919290803590602001906401000000008111156117ee57600080fd5b82018360208201111561180057600080fd5b8035906020019184600183028401116401000000008311171561182257600080fd5b91908080601f016020809104026020016040519081016040528093929190818152602001838380828437600081840152601f19601f8201169050808301925050505050505091929192908035906020019064010000000081111561188557600080fd5b82018360208201111561189757600080fd5b803590602001918460018302840111640100000000831117156118b957600080fd5b91908080601f016020809104026020016040519081016040528093929190818152602001838380828437600081840152601f19601f8201169050808301925050505050505091929192908035906020019064010000000081111561191c57600080fd5b82018360208201111561192e57600080fd5b8035906020019184600183028401116401000000008311171561195057600080fd5b91908080601f016020809104026020016040519081016040528093929190818152602001838380828437600081840152601f19601f820116905080830192505050505050509192919290505050613bcb565b005b3480156119b057600080fd5b506119f3600480360360208110156119c757600080fd5b81019080803573ffffffffffffffffffffffffffffffffffffffff169060200190929190505050614005565b005b348015611a0157600080fd5b50611a2e60048036036020811015611a1857600080fd5b810190808035906020019092919050505061406d565b005b348015611a3c57600080fd5b50611a6960048036036020811015611a5357600080fd5b81019080803590602001909291905050506142a7565b005b348015611a7757600080fd5b50611aba60048036036020811015611a8e57600080fd5b81019080803573ffffffffffffffffffffffffffffffffffffffff1690602001909291905050506144e1565b6040518080602001828103825283818151815260200191508051906020019080838360005b83811015611afa578082015181840152602081019050611adf565b50505050905090810190601f168015611b275780820380516001836020036101000a031916815260200191505b509250505060405180910390f35b6000611b4b8260076144fe90919063ffffffff16565b9050919050565b611b5b33613172565b1515611bf5576040517f08c379a000000000000000000000000000000000000000000000000000000000815260040180806020018281038252602b8152602001807f41636369c3b36e20736f6c6f207065726d6974696461207061726120656c204481526020017f6973747269627569646f7200000000000000000000000000000000000000000081525060400191505060405180910390fd5b611bff8282614592565b5050565b611c0c336134ab565b1515611ca6576040517f08c379a00000000000000000000000000000000000000000000000000000000081526004018080602001828103825260298152602001807f41636369c3b36e20736f6c6f207065726d6974696461207061726120656c204181526020017f67726963756c746f72000000000000000000000000000000000000000000000081525060400191505060405180910390fd5b8060006009811115611cb457fe5b60106000838152602001908152602001600020600b0160009054906101000a900460ff166009811115611ce357fe5b141515611d58576040517f08c379a00000000000000000000000000000000000000000000000000000000081526004018080602001828103825260108152602001807f6974656d206e6f7420706c616e7465640000000000000000000000000000000081525060200191505060405180910390fd5b6010600083815260200190815260200160002060030160009054906101000a900473ffffffffffffffffffffffffffffffffffffffff168073ffffffffffffffffffffffffffffffffffffffff163373ffffffffffffffffffffffffffffffffffffffff16141515611dc957600080fd5b600160106000858152602001908152602001600020600b0160006101000a81548160ff02191690836009811115611dfc57fe5b02179055507f599baec82048a2b29f6fb5d2e9cec5c88d01ecd2f9e29e090ae7b8e8160d3d11836040518082815260200191505060405180910390a1505050565b6000611e5382600b6144fe90919063ffffffff16565b9050919050565b6000611e703360096144fe90919063ffffffff16565b905090565b611e7e33612ff3565b1515611f18576040517f08c379a00000000000000000000000000000000000000000000000000000000081526004018080602001828103825260298152602001807f41636369c3b36e20736f6c6f207065726d6974696461207061726120656c206381526020017f6f6e73756d69646f72000000000000000000000000000000000000000000000081525060400191505060405180910390fd5b611f22828261465f565b5050565b611f2f336134ab565b1515611fc9576040517f08c379a00000000000000000000000000000000000000000000000000000000081526004018080602001828103825260298152602001807f41636369c3b36e20736f6c6f207065726d6974696461207061726120656c204181526020017f67726963756c746f72000000000000000000000000000000000000000000000081525060400191505060405180910390fd5b8160046009811115611fd757fe5b60106000838152602001908152602001600020600b0160009054906101000a900460ff16600981111561200657fe5b14151561207b576040517f08c379a000000000000000000000000000000000000000000000000000000000815260040180806020018281038252600f8152602001807f6974656d206e6f74207061636b6564000000000000000000000000000000000081525060200191505060405180910390fd5b6010600084815260200190815260200160002060030160009054906101000a900473ffffffffffffffffffffffffffffffffffffffff168073ffffffffffffffffffffffffffffffffffffffff163373ffffffffffffffffffffffffffffffffffffffff161415156120ec57600080fd5b600560106000868152602001908152602001600020600b0160006101000a81548160ff0219169083600981111561211f57fe5b02179055508260106000868152602001908152602001600020600a01819055507fa96ae0fc3224ebd79eebfe54bd130cc9cb94416cddd1f2386115e00b72532468846040518082815260200191505060405180910390a150505050565b612185336134ab565b151561221f576040517f08c379a00000000000000000000000000000000000000000000000000000000081526004018080602001828103825260298152602001807f41636369c3b36e20736f6c6f207065726d6974696461207061726120656c204181526020017f67726963756c746f72000000000000000000000000000000000000000000000081525060400191505060405180910390fd5b806001600981111561222d57fe5b60106000838152602001908152602001600020600b0160009054906101000a900460ff16600981111561225c57fe5b1415156122d1576040517f08c379a00000000000000000000000000000000000000000000000000000000081526004018080602001828103825260108152602001807f6974656d206e6f74206d6174757265640000000000000000000000000000000081525060200191505060405180910390fd5b6010600083815260200190815260200160002060030160009054906101000a900473ffffffffffffffffffffffffffffffffffffffff168073ffffffffffffffffffffffffffffffffffffffff163373ffffffffffffffffffffffffffffffffffffffff1614151561234257600080fd5b600260106000858152602001908152602001600020600b0160006101000a81548160ff0219169083600981111561237557fe5b02179055507f8e55ccfc9778ff8eba1646d765cf1982537ce0f9257054a17b48aad745250183836040518082815260200191505060405180910390a1505050565b60606123cc82600561472c90919063ffffffff16565b9050919050565b600d60009054906101000a900473ffffffffffffffffffffffffffffffffffffffff1673ffffffffffffffffffffffffffffffffffffffff163373ffffffffffffffffffffffffffffffffffffffff1614151561242f57600080fd5b600d60009054906101000a900473ffffffffffffffffffffffffffffffffffffffff1673ffffffffffffffffffffffffffffffffffffffff163373ffffffffffffffffffffffffffffffffffffffff1614156124c057600d60009054906101000a900473ffffffffffffffffffffffffffffffffffffffff1673ffffffffffffffffffffffffffffffffffffffff16ff5b565b60606124d882600b61472c90919063ffffffff16565b9050919050565b6124e833614810565b565b60006125003360076144fe90919063ffffffff16565b905090565b61250e336134ab565b15156125a8576040517f08c379a00000000000000000000000000000000000000000000000000000000081526004018080602001828103825260298152602001807f41636369c3b36e20736f6c6f207065726d6974696461207061726120656c204181526020017f67726963756c746f72000000000000000000000000000000000000000000000081525060400191505060405180910390fd5b80600260098111156125b657fe5b60106000838152602001908152602001600020600b0160009054906101000a900460ff1660098111156125e557fe5b14151561265a576040517f08c379a00000000000000000000000000000000000000000000000000000000081526004018080602001828103825260128152602001807f6974656d206e6f7420686172766573746564000000000000000000000000000081525060200191505060405180910390fd5b6010600083815260200190815260200160002060030160009054906101000a900473ffffffffffffffffffffffffffffffffffffffff168073ffffffffffffffffffffffffffffffffffffffff163373ffffffffffffffffffffffffffffffffffffffff161415156126cb57600080fd5b600360106000858152602001908152602001600020600b0160006101000a81548160ff021916908360098111156126fe57fe5b02179055507f5afe3b1bf87069693c075da5c22a98d63d1aef98a30dbbe538d0781a98b77ee5836040518082815260200191505060405180910390a1505050565b606061275582600161472c90919063ffffffff16565b9050919050565b60006127728260096144fe90919063ffffffff16565b9050919050565b606061278f82600961472c90919063ffffffff16565b9050919050565b61279f33614938565b565b6127aa33614a5f565b565b600080600060606000806000806000601060008b8152602001908152602001600020600001549850601060008b8152602001908152602001600020600101549750601060008b8152602001908152602001600020600801549650601060008b81526020019081526020016000206009018054600181600116156101000203166002900480601f0160208091040260200160405190810160405280929190818152602001828054600181600116156101000203166002900480156128b05780601f10612885576101008083540402835291602001916128b0565b820191906000526020600020905b81548152906001019060200180831161289357829003601f168201915b50505050509550601060008b8152602001908152602001600020600a01549450601060008b8152602001908152602001600020600b0160009054906101000a900460ff1660098111156128ff57fe5b9350601060008b8152602001908152602001600020600b0160019054906101000a900473ffffffffffffffffffffffffffffffffffffffff169250601060008b8152602001908152602001600020600c0160009054906101000a900473ffffffffffffffffffffffffffffffffffffffff169150601060008b8152602001908152602001600020600d0160009054906101000a900473ffffffffffffffffffffffffffffffffffffffff1690508888888888888888889850985098509850985098509850985098509193959799909294969850565b600d60009054906101000a900473ffffffffffffffffffffffffffffffffffffffff1673ffffffffffffffffffffffffffffffffffffffff163373ffffffffffffffffffffffffffffffffffffffff16141515612a3057600080fd5b600073ffffffffffffffffffffffffffffffffffffffff166000809054906101000a900473ffffffffffffffffffffffffffffffffffffffff1673ffffffffffffffffffffffffffffffffffffffff167f5c486528ec3e3f0ea91181cff8116f02bfa350e03b8b6f12e00765adbb5af85c60405160405180910390a360008060006101000a81548173ffffffffffffffffffffffffffffffffffffffff021916908373ffffffffffffffffffffffffffffffffffffffff160217905550565b612af83361275c565b1515612b92576040517f08c379a00000000000000000000000000000000000000000000000000000000081526004018080602001828103825260278152602001807f41636369c3b36e20736f6c6f207065726d6974696461207061726120656c205281526020017f657461696c65720000000000000000000000000000000000000000000000000081525060400191505060405180910390fd5b612b9c8282614b87565b5050565b600080600080606080606080601060008a8152602001908152602001600020600001549750601060008a8152602001908152602001600020600101549650601060008a815260200190815260200160002060020160009054906101000a900473ffffffffffffffffffffffffffffffffffffffff169550601060008a815260200190815260200160002060030160009054906101000a900473ffffffffffffffffffffffffffffffffffffffff169450601060008a81526020019081526020016000206004018054600181600116156101000203166002900480601f016020809104026020016040519081016040528092919081815260200182805460018160011615610100020316600290048015612cfa5780601f10612ccf57610100808354040283529160200191612cfa565b820191906000526020600020905b815481529060010190602001808311612cdd57829003601f168201915b50505050509350601060008a81526020019081526020016000206005018054600181600116156101000203166002900480601f016020809104026020016040519081016040528092919081815260200182805460018160011615610100020316600290048015612dab5780601f10612d8057610100808354040283529160200191612dab565b820191906000526020600020905b815481529060010190602001808311612d8e57829003601f168201915b50505050509250601060008a81526020019081526020016000206006018054600181600116156101000203166002900480601f016020809104026020016040519081016040528092919081815260200182805460018160011615610100020316600290048015612e5c5780601f10612e3157610100808354040283529160200191612e5c565b820191906000526020600020905b815481529060010190602001808311612e3f57829003601f168201915b50505050509150601060008a81526020019081526020016000206007018054600181600116156101000203166002900480601f016020809104026020016040519081016040528092919081815260200182805460018160011615610100020316600290048015612f0d5780601f10612ee257610100808354040283529160200191612f0d565b820191906000526020600020905b815481529060010190602001808311612ef057829003601f168201915b50505050509050878787878787878797509750975097509750975097509750919395975091939597565b612f4033611b35565b1515612fda576040517f08c379a000000000000000000000000000000000000000000000000000000000815260040180806020018281038252602b8152602001807f41636369c3b36e20736f6c6f207065726d6974696461207061726120656c204481526020017f6973747269627569646f7200000000000000000000000000000000000000000081525060400191505060405180910390fd5b612fe48282614c54565b5050565b612ff133614d21565b565b60006130098260016144fe90919063ffffffff16565b9050919050565b613019336134ab565b15156130b3576040517f08c379a00000000000000000000000000000000000000000000000000000000081526004018080602001828103825260298152602001807f41636369c3b36e20736f6c6f207065726d6974696461207061726120656c204181526020017f67726963756c746f72000000000000000000000000000000000000000000000081525060400191505060405180910390fd5b6130bd8282614e49565b5050565b6130ca33611e3d565b1515613164576040517f08c379a000000000000000000000000000000000000000000000000000000000815260040180806020018281038252602b8152602001807f41636369c3b36e20736f6c6f207065726d6974696461207061726120656c204d81526020017f616e75666163747572657200000000000000000000000000000000000000000081525060400191505060405180910390fd5b61316e8282614f16565b5050565b60006131888260056144fe90919063ffffffff16565b9050919050565b60008060009054906101000a900473ffffffffffffffffffffffffffffffffffffffff1673ffffffffffffffffffffffffffffffffffffffff163373ffffffffffffffffffffffffffffffffffffffff1614905090565b60006131fc3360016144fe90919063ffffffff16565b905090565b61320a3361275c565b15156132a4576040517f08c379a00000000000000000000000000000000000000000000000000000000081526004018080602001828103825260278152602001807f41636369c3b36e20736f6c6f207065726d6974696461207061726120656c205281526020017f657461696c65720000000000000000000000000000000000000000000000000081525060400191505060405180910390fd5b80600760098111156132b257fe5b60106000838152602001908152602001600020600b0160009054906101000a900460ff1660098111156132e157fe5b141515613356576040517f08c379a000000000000000000000000000000000000000000000000000000000815260040180806020018281038252600a8152602001807f4e6f20736869707065640000000000000000000000000000000000000000000081525060200191505060405180910390fd5b336010600084815260200190815260200160002060020160006101000a81548173ffffffffffffffffffffffffffffffffffffffff021916908373ffffffffffffffffffffffffffffffffffffffff1602179055503360106000848152602001908152602001600020600c0160006101000a81548173ffffffffffffffffffffffffffffffffffffffff021916908373ffffffffffffffffffffffffffffffffffffffff160217905550600860106000848152602001908152602001600020600b0160006101000a81548160ff0219169083600981111561343357fe5b02179055507fa8142743f8f70a4c26f3691cf4ed59718381fb2f18070ec52be1f1022d855557826040518082815260200191505060405180910390a15050565b60006134893360036144fe90919063ffffffff16565b905090565b60606134a482600761472c90919063ffffffff16565b9050919050565b60006134c18260036144fe90919063ffffffff16565b9050919050565b60006134de3360056144fe90919063ffffffff16565b905090565b6134ec33612ff3565b1515613586576040517f08c379a00000000000000000000000000000000000000000000000000000000081526004018080602001828103825260298152602001807f41636369c3b36e20736f6c6f207065726d6974696461207061726120656c206381526020017f6f6e73756d69646f72000000000000000000000000000000000000000000000081525060400191505060405180910390fd5b806008600981111561359457fe5b60106000838152602001908152602001600020600b0160009054906101000a900460ff1660098111156135c357fe5b141515613638576040517f08c379a000000000000000000000000000000000000000000000000000000000815260040180806020018281038252600b8152602001807f4e6f20726563656976656400000000000000000000000000000000000000000081525060200191505060405180910390fd5b336010600084815260200190815260200160002060020160006101000a81548173ffffffffffffffffffffffffffffffffffffffff021916908373ffffffffffffffffffffffffffffffffffffffff1602179055503360106000848152602001908152602001600020600d0160006101000a81548173ffffffffffffffffffffffffffffffffffffffff021916908373ffffffffffffffffffffffffffffffffffffffff160217905550600960106000848152602001908152602001600020600b0160006101000a81548160ff0219169083600981111561371557fe5b02179055507f653d56639fee6b566a5c804764e9689de38645f0b733df89a36a1b7b42173dd8826040518082815260200191505060405180910390a15050565b6000806000806000806137666131e6565b9550613770611e5a565b945061377a6134c8565b93506137846137e1565b925061378e6124ea565b9150613798613473565b9050909192939495565b6137ab33614fe3565b565b6137b63361510b565b565b60008060009054906101000a900473ffffffffffffffffffffffffffffffffffffffff16905090565b60006137f733600b6144fe90919063ffffffff16565b905090565b61380533613172565b151561389f576040517f08c379a000000000000000000000000000000000000000000000000000000000815260040180806020018281038252602b8152602001807f41636369c3b36e20736f6c6f207065726d6974696461207061726120656c204481526020017f6973747269627569646f7200000000000000000000000000000000000000000081525060400191505060405180910390fd5b80600560098111156138ad57fe5b60106000838152602001908152602001600020600b0160009054906101000a900460ff1660098111156138dc57fe5b141515613951576040517f08c379a000000000000000000000000000000000000000000000000000000000815260040180806020018281038252600c8152602001807f4e6f7420666f722073616c65000000000000000000000000000000000000000081525060200191505060405180910390fd5b60106000838152602001908152602001600020600a015480341015151561397757600080fd5b82336010600086815260200190815260200160002060020160006101000a81548173ffffffffffffffffffffffffffffffffffffffff021916908373ffffffffffffffffffffffffffffffffffffffff1602179055503360106000868152602001908152602001600020600b0160016101000a81548173ffffffffffffffffffffffffffffffffffffffff021916908373ffffffffffffffffffffffffffffffffffffffff160217905550600660106000868152602001908152602001600020600b0160006101000a81548160ff02191690836009811115613a5557fe5b02179055506010600085815260200190815260200160002060030160009054906101000a900473ffffffffffffffffffffffffffffffffffffffff1673ffffffffffffffffffffffffffffffffffffffff166108fc60106000878152602001908152602001600020600a01549081150290604051600060405180830381858888f19350505050158015613aec573d6000803e3d6000fd5b507f92f64ca637d023f354075a4be751b169c1a8a9ccb6d33cdd0cb3520543995727846040518082815260200191505060405180910390a1600060106000838152602001908152602001600020600a015490506000813403905060106000848152602001908152602001600020600d0160009054906101000a900473ffffffffffffffffffffffffffffffffffffffff1673ffffffffffffffffffffffffffffffffffffffff166108fc829081150290604051600060405180830381858888f19350505050158015613bc2573d6000803e3d6000fd5b50505050505050565b613bd4336134ab565b1515613c6e576040517f08c379a00000000000000000000000000000000000000000000000000000000081526004018080602001828103825260298152602001807f41636369c3b36e20736f6c6f207065726d6974696461207061726120656c204181526020017f67726963756c746f72000000000000000000000000000000000000000000000081525060400191505060405180910390fd5b6101e060405190810160405280600f5481526020018881526020018773ffffffffffffffffffffffffffffffffffffffff1681526020018773ffffffffffffffffffffffffffffffffffffffff168152602001868152602001858152602001848152602001838152602001600f54890181526020018281526020016000815260200160006009811115613cfd57fe5b8152602001600073ffffffffffffffffffffffffffffffffffffffff168152602001600073ffffffffffffffffffffffffffffffffffffffff168152602001600073ffffffffffffffffffffffffffffffffffffffff1681525060106000898152602001908152602001600020600082015181600001556020820151816001015560408201518160020160006101000a81548173ffffffffffffffffffffffffffffffffffffffff021916908373ffffffffffffffffffffffffffffffffffffffff16021790555060608201518160030160006101000a81548173ffffffffffffffffffffffffffffffffffffffff021916908373ffffffffffffffffffffffffffffffffffffffff1602179055506080820151816004019080519060200190613e289291906154e3565b5060a0820151816005019080519060200190613e459291906154e3565b5060c0820151816006019080519060200190613e629291906154e3565b5060e0820151816007019080519060200190613e7f9291906154e3565b506101008201518160080155610120820151816009019080519060200190613ea89291906154e3565b5061014082015181600a015561016082015181600b0160006101000a81548160ff02191690836009811115613ed957fe5b021790555061018082015181600b0160016101000a81548173ffffffffffffffffffffffffffffffffffffffff021916908373ffffffffffffffffffffffffffffffffffffffff1602179055506101a082015181600c0160006101000a81548173ffffffffffffffffffffffffffffffffffffffff021916908373ffffffffffffffffffffffffffffffffffffffff1602179055506101c082015181600d0160006101000a81548173ffffffffffffffffffffffffffffffffffffffff021916908373ffffffffffffffffffffffffffffffffffffffff1602179055509050506001600f5401600f819055507f1c3398af928f961cf9c1f49d3892d391f45dde3731266f32690ec2a94c3d3d50876040518082815260200191505060405180910390a150505050505050565b600d60009054906101000a900473ffffffffffffffffffffffffffffffffffffffff1673ffffffffffffffffffffffffffffffffffffffff163373ffffffffffffffffffffffffffffffffffffffff1614151561406157600080fd5b61406a81615233565b50565b614076336134ab565b1515614110576040517f08c379a00000000000000000000000000000000000000000000000000000000081526004018080602001828103825260298152602001807f41636369c3b36e20736f6c6f207065726d6974696461207061726120656c204181526020017f67726963756c746f72000000000000000000000000000000000000000000000081525060400191505060405180910390fd5b806003600981111561411e57fe5b60106000838152602001908152602001600020600b0160009054906101000a900460ff16600981111561414d57fe5b1415156141c2576040517f08c379a00000000000000000000000000000000000000000000000000000000081526004018080602001828103825260138152602001807f6974656d206e6f742070726f636365737365640000000000000000000000000081525060200191505060405180910390fd5b6010600083815260200190815260200160002060030160009054906101000a900473ffffffffffffffffffffffffffffffffffffffff168073ffffffffffffffffffffffffffffffffffffffff163373ffffffffffffffffffffffffffffffffffffffff1614151561423357600080fd5b600460106000858152602001908152602001600020600b0160006101000a81548160ff0219169083600981111561426657fe5b02179055507f9b3b66e2380b690bae22c73ef1428fb0c91e72fe14a4b6defa13035214187aff836040518082815260200191505060405180910390a1505050565b6142b033613172565b151561434a576040517f08c379a000000000000000000000000000000000000000000000000000000000815260040180806020018281038252602b8152602001807f41636369c3b36e20736f6c6f207065726d6974696461207061726120656c204481526020017f6973747269627569646f7200000000000000000000000000000000000000000081525060400191505060405180910390fd5b806006600981111561435857fe5b60106000838152602001908152602001600020600b0160009054906101000a900460ff16600981111561438757fe5b1415156143fc576040517f08c379a000000000000000000000000000000000000000000000000000000000815260040180806020018281038252600c8152602001807f4e6f7420736f6c64206f7574000000000000000000000000000000000000000081525060200191505060405180910390fd5b60106000838152602001908152602001600020600b0160019054906101000a900473ffffffffffffffffffffffffffffffffffffffff168073ffffffffffffffffffffffffffffffffffffffff163373ffffffffffffffffffffffffffffffffffffffff1614151561446d57600080fd5b600760106000858152602001908152602001600020600b0160006101000a81548160ff021916908360098111156144a057fe5b02179055507ff00b9a5725b80c54016f42114f6ed7792d22eecb116011c4afac29c57bef6c95836040518082815260200191505060405180910390a1505050565b60606144f782600361472c90919063ffffffff16565b9050919050565b60008073ffffffffffffffffffffffffffffffffffffffff168273ffffffffffffffffffffffffffffffffffffffff161415151561453b57600080fd5b8260000160008373ffffffffffffffffffffffffffffffffffffffff1673ffffffffffffffffffffffffffffffffffffffff16815260200190815260200160002060009054906101000a900460ff16905092915050565b6145a88282600561532d9092919063ffffffff16565b8173ffffffffffffffffffffffffffffffffffffffff167fd5f2429a2bf80f34a91686b8f8d62bb9eae8dc57860a6d9897513d36c9696beb826040518080602001828103825283818151815260200191508051906020019080838360005b83811015614621578082015181840152602081019050614606565b50505050905090810190601f16801561464e5780820380516001836020036101000a031916815260200191505b509250505060405180910390a25050565b6146758282600161532d9092919063ffffffff16565b8173ffffffffffffffffffffffffffffffffffffffff167fe53c8cba2d3adcba576da625a6ede1ffdae51f12e59ec3d94204eba247cc19ac826040518080602001828103825283818151815260200191508051906020019080838360005b838110156146ee5780820151818401526020810190506146d3565b50505050905090810190601f16801561471b5780820380516001836020036101000a031916815260200191505b509250505060405180910390a25050565b60608260010160008373ffffffffffffffffffffffffffffffffffffffff1673ffffffffffffffffffffffffffffffffffffffff1681526020019081526020016000208054600181600116156101000203166002900480601f0160208091040260200160405190810160405280929190818152602001828054600181600116156101000203166002900480156148035780601f106147d857610100808354040283529160200191614803565b820191906000526020600020905b8154815290600101906020018083116147e657829003601f168201915b5050505050905092915050565b61482481600761543490919063ffffffff16565b8073ffffffffffffffffffffffffffffffffffffffff167f5c1a8e2b7bd6e5a51f31bf534b3179f1151d6b1436f7849806aeae92842e99ca600760010160008473ffffffffffffffffffffffffffffffffffffffff1673ffffffffffffffffffffffffffffffffffffffff16815260200190815260200160002060405180806020018281038252838181546001816001161561010002031660029004815260200191508054600181600116156101000203166002900480156149275780601f106148fc57610100808354040283529160200191614927565b820191906000526020600020905b81548152906001019060200180831161490a57829003601f168201915b50509250505060405180910390a250565b61494c81600161543490919063ffffffff16565b8073ffffffffffffffffffffffffffffffffffffffff167f7a310d3ad4575acb88b164e701cc845f7465a6323e52d0b94a1998879c6dd9696001800160008473ffffffffffffffffffffffffffffffffffffffff1673ffffffffffffffffffffffffffffffffffffffff1681526020019081526020016000206040518080602001828103825283818154600181600116156101000203166002900481526020019150805460018160011615610100020316600290048015614a4e5780601f10614a2357610100808354040283529160200191614a4e565b820191906000526020600020905b815481529060010190602001808311614a3157829003601f168201915b50509250505060405180910390a250565b614a7381600561543490919063ffffffff16565b8073ffffffffffffffffffffffffffffffffffffffff167fe1f0f63bd16b1fe6d239f7979ac1ddd832b06aaf47a1bdebceacba9b6acfca87600560010160008473ffffffffffffffffffffffffffffffffffffffff1673ffffffffffffffffffffffffffffffffffffffff1681526020019081526020016000206040518080602001828103825283818154600181600116156101000203166002900481526020019150805460018160011615610100020316600290048015614b765780601f10614b4b57610100808354040283529160200191614b76565b820191906000526020600020905b815481529060010190602001808311614b5957829003601f168201915b50509250505060405180910390a250565b614b9d8282600961532d9092919063ffffffff16565b8173ffffffffffffffffffffffffffffffffffffffff167fef168356b7689c5f335452a945fd819f397250718544782d21d651705c6ea0bb826040518080602001828103825283818151815260200191508051906020019080838360005b83811015614c16578082015181840152602081019050614bfb565b50505050905090810190601f168015614c435780820380516001836020036101000a031916815260200191505b509250505060405180910390a25050565b614c6a8282600761532d9092919063ffffffff16565b8173ffffffffffffffffffffffffffffffffffffffff167f0fe1f7e3664f42680baba928ae84ede0d48115d076ee0837a8b7e1158cf11ae3826040518080602001828103825283818151815260200191508051906020019080838360005b83811015614ce3578082015181840152602081019050614cc8565b50505050905090810190601f168015614d105780820380516001836020036101000a031916815260200191505b509250505060405180910390a25050565b614d3581600361543490919063ffffffff16565b8073ffffffffffffffffffffffffffffffffffffffff167fb4837998ffdbd9d44a8b242cbd8fa6dce691a73411ecf4a2f9afca2b88417fde600360010160008473ffffffffffffffffffffffffffffffffffffffff1673ffffffffffffffffffffffffffffffffffffffff1681526020019081526020016000206040518080602001828103825283818154600181600116156101000203166002900481526020019150805460018160011615610100020316600290048015614e385780601f10614e0d57610100808354040283529160200191614e38565b820191906000526020600020905b815481529060010190602001808311614e1b57829003601f168201915b50509250505060405180910390a250565b614e5f8282600361532d9092919063ffffffff16565b8173ffffffffffffffffffffffffffffffffffffffff167f2d3331c2b3444f4cc5283c8d148c8508e8ac7ce8ecf49d2896a17fd0a4e29d5b826040518080602001828103825283818151815260200191508051906020019080838360005b83811015614ed8578082015181840152602081019050614ebd565b50505050905090810190601f168015614f055780820380516001836020036101000a031916815260200191505b509250505060405180910390a25050565b614f2c8282600b61532d9092919063ffffffff16565b8173ffffffffffffffffffffffffffffffffffffffff167f1945d2c71d577291ed89748399bbcdcedbcb3611bdd9032a98b82b00e636f388826040518080602001828103825283818151815260200191508051906020019080838360005b83811015614fa5578082015181840152602081019050614f8a565b50505050905090810190601f168015614fd25780820380516001836020036101000a031916815260200191505b509250505060405180910390a25050565b614ff781600961543490919063ffffffff16565b8073ffffffffffffffffffffffffffffffffffffffff167f4e3b46aad2af34c9efa6da71118861b1bc1d38449d8deb162106254948aceb85600960010160008473ffffffffffffffffffffffffffffffffffffffff1673ffffffffffffffffffffffffffffffffffffffff16815260200190815260200160002060405180806020018281038252838181546001816001161561010002031660029004815260200191508054600181600116156101000203166002900480156150fa5780601f106150cf576101008083540402835291602001916150fa565b820191906000526020600020905b8154815290600101906020018083116150dd57829003601f168201915b50509250505060405180910390a250565b61511f81600b61543490919063ffffffff16565b8073ffffffffffffffffffffffffffffffffffffffff167fc86770f28881a7280276ec532eea689e244dd34a2285d43a2b6b89244b326336600b60010160008473ffffffffffffffffffffffffffffffffffffffff1673ffffffffffffffffffffffffffffffffffffffff16815260200190815260200160002060405180806020018281038252838181546001816001161561010002031660029004815260200191508054600181600116156101000203166002900480156152225780601f106151f757610100808354040283529160200191615222565b820191906000526020600020905b81548152906001019060200180831161520557829003601f168201915b50509250505060405180910390a250565b600073ffffffffffffffffffffffffffffffffffffffff168173ffffffffffffffffffffffffffffffffffffffff161415151561526f57600080fd5b8073ffffffffffffffffffffffffffffffffffffffff166000809054906101000a900473ffffffffffffffffffffffffffffffffffffffff1673ffffffffffffffffffffffffffffffffffffffff167f5c486528ec3e3f0ea91181cff8116f02bfa350e03b8b6f12e00765adbb5af85c60405160405180910390a3806000806101000a81548173ffffffffffffffffffffffffffffffffffffffff021916908373ffffffffffffffffffffffffffffffffffffffff16021790555050565b600073ffffffffffffffffffffffffffffffffffffffff168273ffffffffffffffffffffffffffffffffffffffff161415151561536957600080fd5b61537383836144fe565b15151561537f57600080fd5b60018360000160008473ffffffffffffffffffffffffffffffffffffffff1673ffffffffffffffffffffffffffffffffffffffff16815260200190815260200160002060006101000a81548160ff021916908315150217905550808360010160008473ffffffffffffffffffffffffffffffffffffffff1673ffffffffffffffffffffffffffffffffffffffff168152602001908152602001600020908051906020019061542e929190615563565b50505050565b600073ffffffffffffffffffffffffffffffffffffffff168173ffffffffffffffffffffffffffffffffffffffff161415151561547057600080fd5b61547a82826144fe565b151561548557600080fd5b60008260000160008373ffffffffffffffffffffffffffffffffffffffff1673ffffffffffffffffffffffffffffffffffffffff16815260200190815260200160002060006101000a81548160ff0219169083151502179055505050565b828054600181600116156101000203166002900490600052602060002090601f016020900481019282601f1061552457805160ff1916838001178555615552565b82800160010185558215615552579182015b82811115615551578251825591602001919060010190615536565b5b50905061555f91906155e3565b5090565b828054600181600116156101000203166002900490600052602060002090601f016020900481019282601f106155a457805160ff19168380011785556155d2565b828001600101855582156155d2579182015b828111156155d15782518255916020019190600101906155b6565b5b5090506155df91906155e3565b5090565b61560591905b808211156156015760008160009055506001016155e9565b5090565b9056fea165627a7a7230582007d6e62f1dbe8f769a5827fe7546fda74924182bd09263cee2dfd9e19bdbe6f10029",
  "source": "pragma solidity >=0.4.24 < 0.6.4;\r\n\r\nimport \"../coffeecore/Ownable.sol\";\r\nimport \"../roles/FarmerRole.sol\";\r\nimport \"../roles/DistributorRole.sol\";\r\nimport \"../roles/ConsumerRole.sol\";\r\nimport \"../roles/RetailerRole.sol\";\r\nimport \"../roles/Rolable.sol\";\r\n// Define a contract 'Supplychain'\r\ncontract SupplyChain is Ownable, Rolable{\r\n\r\n  // Define 'owner'\r\n  address payable owner;\r\n\r\n  // Define a variable called 'upc' for Universal Product Code (UPC)\r\n  uint  upc;\r\n\r\n  // Define a variable called 'sku' for Stock Keeping Unit (SKU)\r\n  uint  sku;\r\n\r\n  // Define a public mapping 'items' that maps the UPC to an Item.\r\n  mapping (uint => Item) items;\r\n\r\n  // Define a public mapping 'itemsHistory' that maps the UPC to an array of TxHash,\r\n  // that track its journey through the supply chain -- to be sent from DApp.\r\n  mapping (uint => string[]) itemsHistory;\r\n\r\n  // Define enum 'State' with the following values:\r\n  enum State\r\n  { \r\n    Planted,    // 0\r\n    Matured,    // 1\r\n    Harvested,  // 2\r\n    Processed,  // 3\r\n    Packed,     // 4\r\n    ForSale,    // 5\r\n    Sold,       // 6\r\n    Shipped,    // 7\r\n    Received,   // 8\r\n    Purchased   // 9\r\n  }\r\n\r\n  State constant defaultState = State.Planted;\r\n\r\n  // Define a struct 'Item' with the following fields:\r\n  struct Item {\r\n    uint    sku;  // Stock Keeping Unit (SKU)\r\n    uint    upc; // Universal Product Code (UPC), generated by the Farmer, goes on the package, can be verified by the Consumer\r\n    address ownerID;  // Metamask-Ethereum address of the current owner as the product moves through 8 stages\r\n    address payable originFarmerID; // Metamask-Ethereum address of the Farmer\r\n    string  originFarmName; // Farmer Name\r\n    string  originFarmInformation;  // Farmer Information\r\n    string  originFarmLatitude; // Farm Latitude\r\n    string  originFarmLongitude;  // Farm Longitude\r\n    uint    productID;  // Product ID potentially a combination of upc + sku\r\n    string  productNotes; // Product Notes\r\n    uint    productPrice; // Product Price\r\n    State   itemState;  // Product State as represented in the enum above\r\n    address distributorID;  // Metamask-Ethereum address of the Distributor\r\n    address retailerID; // Metamask-Ethereum address of the Retailer\r\n    address payable consumerID; // Metamask-Ethereum address of the Consumer\r\n  }\r\n\r\n  // Define 10 events with the same 8 state values and accept 'upc' as input argument\r\n  event Planted(uint upc);\r\n  event Matured(uint upc);\r\n  event Harvested(uint upc);\r\n  event Processed(uint upc);\r\n  event Packed(uint upc);\r\n  event ForSale(uint upc);\r\n  event Sold(uint upc);\r\n  event Shipped(uint upc);\r\n  event Received(uint upc);\r\n  event Purchased(uint upc);\r\n\r\n  // Define a modifer that checks to see if msg.sender == owner of the contract\r\n  modifier onlyOwner() {\r\n    require(msg.sender == owner);\r\n    _;\r\n  }\r\n\r\n  // Define a modifer that verifies the Caller\r\n  modifier verifyCaller (address _address) {\r\n    require(msg.sender == _address);\r\n    _;\r\n  }\r\n\r\n  // Define a modifier that checks if the paid amount is sufficient to cover the price\r\n  modifier paidEnough(uint _price) {\r\n    require(msg.value >= _price);\r\n    _;\r\n  }\r\n  \r\n  // Define a modifier that checks the price and refunds the remaining balance\r\n  modifier checkValue(uint _upc) {\r\n    _;\r\n    uint _price = items[_upc].productPrice;\r\n    uint amountToReturn = msg.value - _price;\r\n    items[_upc].consumerID.transfer(amountToReturn);\r\n  }\r\n    // Define a modifier that checks if an item.state of a upc is Planted\r\n  modifier planted(uint _upc) {\r\n    require(items[_upc].itemState == State.Planted,\"item not planted\");\r\n    _;\r\n  }\r\n  // Define a modifier that checks if an item.state of a upc is Matured\r\n  modifier matured(uint _upc) {\r\n    require(items[_upc].itemState == State.Matured,\"item not matured\");\r\n    _;\r\n  }\r\n  // Define a modifier that checks if an item.state of a upc is Harvested\r\n  modifier harvested(uint _upc) {\r\n    require(items[_upc].itemState == State.Harvested,\"item not harvested\");\r\n    _;\r\n  }\r\n\r\n  // Define a modifier that checks if an item.state of a upc is Processed\r\n  modifier processed(uint _upc) {\r\n    require(items[_upc].itemState == State.Processed,\"item not proccessed\");\r\n    _;\r\n  }\r\n  \r\n  // Define a modifier that checks if an item.state of a upc is Packed\r\n  modifier packed(uint _upc) {\r\n    require(items[_upc].itemState == State.Packed,\"item not packed\");\r\n    _;\r\n  }\r\n\r\n  // Define a modifier that checks if an item.state of a upc is ForSale\r\n  modifier forSale(uint _upc) {\r\n    require(items[_upc].itemState == State.ForSale,\"Not for sale\");\r\n    _;\r\n  }\r\n\r\n  // Define a modifier that checks if an item.state of a upc is Sold\r\n  modifier sold(uint _upc) {\r\n    require(items[_upc].itemState == State.Sold, \"Not sold out\");\r\n    _;\r\n  }\r\n  \r\n  // Define a modifier that checks if an item.state of a upc is Shipped\r\n  modifier shipped(uint _upc) {\r\n    require(items[_upc].itemState == State.Shipped, \"No shipped\");\r\n    _;\r\n  }\r\n\r\n  // Define a modifier that checks if an item.state of a upc is Received\r\n  modifier received(uint _upc) {\r\n    require(items[_upc].itemState == State.Received, \"No received\");\r\n    _;\r\n  }\r\n\r\n  // Define a modifier that checks if an item.state of a upc is Purchased\r\n  modifier purchased(uint _upc) {\r\n    require(items[_upc].itemState == State.Purchased,\"No purchased\");\r\n    _;\r\n  }\r\n\r\n  // In the constructor set 'owner' to the address that instantiated the contract\r\n  // and set 'sku' to 1\r\n  // and set 'upc' to 1\r\n  constructor() public payable {\r\n    owner = msg.sender;\r\n    sku = 1;\r\n    upc = 1;\r\n  }\r\n\r\n  // Define a function 'kill' if required\r\n  function kill() public\r\n  onlyOwner()\r\n  {\r\n    if (msg.sender == owner) {\r\n      selfdestruct(owner);\r\n    }\r\n  }\r\n\r\n  // Define a function 'plantItem' that allows a farmer to mark an item 'Planted'\r\n  function plantItem(uint _upc, address payable _originFarmerID,   string memory _originFarmName,\r\n                       string memory _originFarmInformation, string memory _originFarmLatitude,\r\n                       string memory _originFarmLongitude,   string memory _productNotes) public\r\n  // Call modifier to verify caller of this function: Only Farmer can plan Coffee\r\n  onlyFarmer()\r\n  {\r\n    // Add the new item as part of Harvest\r\n    items[_upc] = Item({sku: sku,\r\n                        upc: _upc,\r\n                        ownerID: _originFarmerID,\r\n                        originFarmerID: _originFarmerID,\r\n                        originFarmName: _originFarmName,\r\n                        originFarmInformation: _originFarmInformation,\r\n                        originFarmLatitude: _originFarmLatitude,\r\n                        originFarmLongitude: _originFarmLongitude,\r\n                        productID: _upc + sku,\r\n                        productNotes: _productNotes,\r\n                        productPrice: 0,\r\n                        itemState: State.Planted,\r\n                        distributorID: address(0),\r\n                        retailerID: address(0),\r\n                        consumerID: address(0) });\r\n    // Increment sku\r\n    sku = sku + 1;\r\n    // Emit the appropriate event\r\n    emit Planted(_upc);\r\n  }\r\n  // Define a function 'processtItem' that allows a farmer to mark an item 'Processed'\r\n  function growItem(uint _upc) public\r\n  onlyFarmer()\r\n  // Call modifier to check if upc has passed previous supply chain stage\r\n  planted(_upc)\r\n  // Call modifier to verify caller of this function\r\n  verifyCaller(items[_upc].originFarmerID)\r\n  {\r\n    // Update the appropriate fields\r\n    items[_upc].itemState = State.Matured;\r\n    // Emit the appropriate event\r\n    emit Matured(_upc);\r\n  }\r\n\r\n  // Define a function 'processtItem' that allows a farmer to mark an item 'Processed'\r\n  function harvestItem(uint _upc) public\r\n  onlyFarmer()\r\n  // Call modifier to check if upc has passed previous supply chain stage\r\n  matured(_upc)\r\n  // Call modifier to verify caller of this function\r\n  verifyCaller(items[_upc].originFarmerID)\r\n  {\r\n    // Update the appropriate fields\r\n    items[_upc].itemState = State.Harvested;\r\n    // Emit the appropriate event\r\n    emit Harvested(_upc);\r\n  }\r\n\r\n  // Define a function 'processtItem' that allows a farmer to mark an item 'Processed'\r\n  function processItem(uint _upc) public\r\n  onlyFarmer()\r\n  // Call modifier to check if upc has passed previous supply chain stage\r\n  harvested(_upc)\r\n  // Call modifier to verify caller of this function\r\n  verifyCaller(items[_upc].originFarmerID)\r\n  {\r\n    // Update the appropriate fields\r\n    items[_upc].itemState = State.Processed;\r\n    // Emit the appropriate event\r\n    emit Processed(_upc);\r\n  }\r\n\r\n  // Define a function 'packItem' that allows a farmer to mark an item 'Packed'\r\n  function packItem(uint _upc) public\r\n  onlyFarmer()\r\n  // Call modifier to check if upc has passed previous supply chain stage\r\n  processed(_upc)\r\n  // Call modifier to verify caller of this function\r\n  verifyCaller(items[_upc].originFarmerID)\r\n  {\r\n    // Update the appropriate fields\r\n    items[_upc].itemState = State.Packed;\r\n    // Emit the appropriate event\r\n    emit Packed(_upc);\r\n  }\r\n\r\n  // Define a function 'sellItem' that allows a farmer to mark an item 'ForSale'\r\n  function sellItem(uint _upc, uint _price) public\r\n  onlyFarmer()\r\n  // Call modifier to check if upc has passed previous supply chain stage\r\n  packed(_upc)\r\n  // Call modifier to verify caller of this function\r\n  verifyCaller(items[_upc].originFarmerID)\r\n  {\r\n    // Update the appropriate fields\r\n    items[_upc].itemState = State.ForSale;\r\n    items[_upc].productPrice = _price;\r\n    // Emit the appropriate event\r\n    emit ForSale(_upc);\r\n  }\r\n\r\n  // Define a function 'buyItem' that allows the disributor to mark an item 'Sold'\r\n  // Use the above defined modifiers to check if the item is available for sale, if the buyer has paid enough,\r\n  // and any excess ether sent is refunded back to the buyer\r\n  function buyItem(uint _upc) public payable\r\n    onlyDistributor()\r\n    // Call modifier to check if upc has passed previous supply chain stage\r\n    forSale(_upc)\r\n    // Call modifer to check if buyer has paid enough\r\n    paidEnough(items[_upc].productPrice)\r\n    // Call modifer to send any excess ether back to buyer\r\n    checkValue(_upc)\r\n    {\r\n    // Update the appropriate fields - ownerID, distributorID, itemState\r\n    items[_upc].ownerID = msg.sender;\r\n    items[_upc].distributorID = msg.sender;\r\n    items[_upc].itemState = State.Sold;\r\n    // Transfer money to farmer\r\n    items[_upc].originFarmerID.transfer(items[_upc].productPrice);\r\n    // emit the appropriate event\r\n    emit Sold(_upc);\r\n  }\r\n\r\n  // Define a function 'shipItem' that allows the distributor to mark an item 'Shipped'\r\n  // Use the above modifers to check if the item is sold\r\n  function shipItem(uint _upc) public\r\n    onlyDistributor()\r\n    // Call modifier to check if upc has passed previous supply chain stage\r\n    sold(_upc)\r\n    // Call modifier to verify caller of this function\r\n    verifyCaller(items[_upc].distributorID)\r\n    {\r\n    // Update the appropriate fields\r\n    items[_upc].itemState = State.Shipped;\r\n    // Emit the appropriate event\r\n    emit Shipped(_upc);\r\n  }\r\n\r\n  // Define a function 'receiveItem' that allows the retailer to mark an item 'Received'\r\n  // Use the above modifiers to check if the item is shipped\r\n  function receiveItem(uint _upc) public\r\n    onlyRetailer()\r\n    // Call modifier to check if upc has passed previous supply chain stage\r\n    shipped(_upc)\r\n    // Access Control List enforced by calling Smart Contract / DApp\r\n    {\r\n    // Update the appropriate fields - ownerID, retailerID, itemState\r\n    items[_upc].ownerID = msg.sender;\r\n    items[_upc].retailerID = msg.sender;\r\n    items[_upc].itemState = State.Received;\r\n    // Emit the appropriate event\r\n    emit Received(_upc);\r\n  }\r\n\r\n  // Define a function 'purchaseItem' that allows the consumer to mark an item 'Purchased'\r\n  // Use the above modifiers to check if the item is received\r\n  function purchaseItem(uint _upc) public\r\n    onlyConsumer()\r\n    // Call modifier to check if upc has passed previous supply chain stage\r\n    received(_upc)\r\n    // Access Control List enforced by calling Smart Contract / DApp\r\n    {\r\n    // Update the appropriate fields - ownerID, consumerID, itemState\r\n    items[_upc].ownerID = msg.sender;\r\n    items[_upc].consumerID = msg.sender;\r\n    items[_upc].itemState = State.Purchased;\r\n    // Emit the appropriate event\r\n    emit Purchased(_upc);\r\n  }\r\n\r\n  // Define a function 'fetchItemBufferOne' that fetches the data\r\n  function fetchItemBufferOne(uint _upc) public view returns\r\n  (\r\n  uint    itemSKU,\r\n  uint    itemUPC,\r\n  address ownerID,\r\n  address originFarmerID,\r\n  string  memory originFarmName,\r\n  string  memory originFarmInformation,\r\n  string  memory originFarmLatitude,\r\n  string  memory originFarmLongitude\r\n  )\r\n  {\r\n  // Assign values to the 8 parameters\r\n    itemSKU = items[_upc].sku;\r\n    itemUPC = items[_upc].upc;\r\n    ownerID = items[_upc].ownerID;\r\n    originFarmerID = items[_upc].originFarmerID;\r\n    originFarmName = items[_upc].originFarmName;\r\n    originFarmInformation = items[_upc].originFarmInformation;\r\n    originFarmLatitude = items[_upc].originFarmLatitude;\r\n    originFarmLongitude = items[_upc].originFarmLongitude;\r\n  return\r\n  (\r\n  itemSKU,\r\n  itemUPC,\r\n  ownerID,\r\n  originFarmerID,\r\n  originFarmName,\r\n  originFarmInformation,\r\n  originFarmLatitude,\r\n  originFarmLongitude\r\n  );\r\n  }\r\n\r\n  // Define a function 'fetchItemBufferTwo' that fetches the data\r\n  function fetchItemBufferTwo(uint _upc) public view returns\r\n  (\r\n  uint    itemSKU,\r\n  uint    itemUPC,\r\n  uint    productID,\r\n  string  memory productNotes,\r\n  uint    productPrice,\r\n  uint    itemState,\r\n  address distributorID,\r\n  address retailerID,\r\n  address consumerID\r\n  )\r\n  {\r\n    // Assign values to the 9 parameters\r\n    itemSKU = items[_upc].sku;\r\n    itemUPC = items[_upc].upc;\r\n    productID = items[_upc].productID;\r\n    productNotes = items[_upc].productNotes;\r\n    productPrice = items[_upc].productPrice;\r\n    itemState = uint(items[_upc].itemState);\r\n    distributorID = items[_upc].distributorID;\r\n    retailerID = items[_upc].retailerID;\r\n    consumerID = items[_upc].consumerID;\r\n  return\r\n  (\r\n  itemSKU,\r\n  itemUPC,\r\n  productID,\r\n  productNotes,\r\n  productPrice,\r\n  itemState,\r\n  distributorID,\r\n  retailerID,\r\n  consumerID\r\n  );\r\n  }\r\n}\r\n",
  "sourcePath": "C:\\Users\\Usuario\\Desktop\\Ethereum-Drug-Supplychain-master\\contracts\\coffeebase\\SupplyChain.sol",
  "compiler": {
    "name": "solc",
    "version": "0.5.0+commit.1d4f565a.Emscripten.clang"
  },
  "schemaVersion": "3.0.23",
  "updatedAt": "2020-07-31T15:27:00.337Z",
  "networkType": "ethereum",
  "devdoc": {
    "methods": {
      "amIConsumer()": {
        "return": "boolean for caller address state in `_Consumers` Role"
      },
      "amIDistributor()": {
        "return": "boolean for caller address state in `_Distributors` Role"
      },
      "amIFarmer()": {
        "return": "boolean for caller address state in `_Farmers` Role"
      },
      "amIManufacturer()": {
        "return": "boolean for caller address state in `_Manufacturers` Role"
      },
      "amIProcessor()": {
        "return": "boolean for caller address state in `_Processors` Role"
      },
      "amIRetailer()": {
        "return": "boolean for caller address state in `_Retailers` Role"
      },
      "whoAmI()": {
        "return": "array contining every role with its state as boolean"
      }
    }
  },
  "userdoc": {
    "methods": {
      "isOwner()": {
        "notice": "Check if the calling address is the owner of the contract"
      },
      "ownerLookup()": {
        "notice": "Look up the address of the owner"
      },
      "renounceOwnership()": {
        "notice": "Define a function to renounce ownerhip"
      },
      "transferOwnership(address)": {
        "notice": "Define a public function to transfer ownership"
      }
    }
  }
}